:020000040000FA
:1000000088180010E9010000F1010000F301000070
:10001000F5010000F7010000F901000000000000F8
:10002000000000000000000000000000FB010000D4
:10003000FD01000000000000FF01000001020000BF
:10004000030200000302000003020000030200009C
:10005000030200000302000003020000030200008C
:10006000030200000302000003020000030200007C
:10007000030200000302000003020000030200006C
:100080000302000003020000B703000003020000A7
:10009000030200000302000003020000030200004C
:1000A000030200000302000003020000030200003C
:1000B000030200000302000003020000030200002C
:1000C00003020000030200000302000000F002F837
:1000D00000F060F80AA090E8000C82448344AAF182
:1000E0000107DA4501D100F055F8AFF2090EBAE880
:1000F0000F0013F0010F18BFFB1A43F0010318475C
:1001000084240000A424000010F8013B0A4413F0EA
:10011000030408BF10F8014B1D1108BF10F8015B64
:10012000641E05D010F8016B641E01F8016BF9D153
:10013000002D15D010F8014B03F00C030C2BA1EB94
:1001400004040ABF10F8013BA4EB8314A4EB0324BE
:1001500005F1010314F8016B5B1E01F8016BF9D581
:10016000914238BF10F8013BD1D3704700230024DF
:1001700000250026103A28BF78C1FBD8520728BFB7
:1001800030C148BF0B6070471FB500F060F81FBD5D
:1001900010B510BD00F08BF81146FFF7F5FF01F028
:1001A000F5FA00F0DFF803B4FFF7F2FF03BC00F04C
:1001B000E7F800000B49D1F800C04A685CF8043B3E
:1001C0001068184442F8040B8C4528BFA1F1DC0CE0
:1001D0008A4228BFA1F1DC02C1F800C04A6020F0C9
:1001E0000040704720160010094880470948004722
:1001F000FEE7FEE7FEE7FEE7FEE7FEE7FEE7FEE7D7
:10020000FEE7FEE704480549034A054B7047000036
:10021000D50C0000CD0000008816001088180010D2
:10022000881600100B4910B5A1F17C020A4CC2E9F6
:100230003712372106E000EB104342F82130074B1C
:1002400000FB03400B1EA1F10101F4DC10BD0120F5
:10025000E8E70000C0150010E119D666CD0D0100D9
:1002600040EA0103024630B59B0710D14FF001343C
:1002700000E008C208C91D1B9D4315EAC41FF8D041
:1002800013F0FF0102F8011B0DD01B0AF8E711F86B
:10029000013B002B02F8013B05D011F8013B002B7C
:1002A00002F8013BF3D130BD704770477047754687
:1002B00000F062F8AE4605006946534620F007009C
:1002C000854618B020B5FFF79DFFBDE820404FF0F0
:1002D00000064FF000074FF000084FF0000B21F030
:1002E0000701AC46ACE8C009ACE8C009ACE8C009FD
:1002F000ACE8C0098D46704770470000FFFFFFFF64
:1003000010B5203AC0F00B80B1E81850203AA0E8B0
:100310001850B1E81850A0E81850BFF4F5AF5FEAE4
:10032000027C24BFB1E81850A0E8185044BF18C997
:1003300018C0BDE810405FEA827C24BF51F8043B3E
:1003400040F8043B08BF7047D20728BF31F8023B92
:1003500048BF11F8012B28BF20F8023B48BF00F826
:10036000012B704710B50446AFF300802046BDE86E
:100370001040FFF718BF0000004870472816001013
:1003800001491820ABBEFEE7260002007CB50646F8
:100390000C4615468DF80060E0B28DF801008DF82E
:1003A0000250684600F082FC7CBD002100E0491C40
:1003B0008142FCD3704710B5002000F003F801F033
:1003C0009BF810BD01218140014A11607047000077
:1003D00040C10F4010B5044600200549086061780F
:1003E000207800F027F8A178207800F03DF810BDC3
:1003F00040C10F4018B5044664B900208DF80000D4
:1004000001208DF8010000208DF802006846FFF7FA
:10041000E1FF00BF00BF18BD002004490860044987
:10042000C1F8480101490C310860704740C10F40D4
:1004300000C00F40012908D1094A126801238340F6
:100440001A43084BC3F8482108E039B9044A126836
:10045000012383409A43034BC3F8482170470000AF
:1004600048C10F4000C00F40012908D1094A126855
:10047000012383401A43084BC3F84C2108E039B9E3
:10048000044A1268012383409A43034BC3F84C216A
:10049000704700004CC10F4000C00F400848406941
:1004A00020F40020064948610846406940F4801065
:1004B00048610846406940F40010486170470000F8
:1004C00000C009200848406940F4002006494861FE
:1004D0000846406920F4801048610846406940F4AD
:1004E000001048617047000000C0092008484069BA
:1004F00040F40020064948610846406940F48010F5
:1005000048610846406920F40010486170470000C7
:1005100000C00920084800680849084306490860E7
:100520000846006A40F4001008620846006C40F477
:10053000006008647047000000C009201000380007
:1005400070B504460D462A2001F0D6FFC4F30720FB
:1005500001F0E6FFE0B201F0E3FF6119491EC1F3CB
:10056000072001F0DDFF6119491EC8B201F0D8FF74
:1005700070BD70B504460D462B2001F0BDFFC4F3DD
:10058000072001F0CDFFE0B201F0CAFF6119491E5A
:10059000C1F3072001F0C4FF6119491EC8B201F080
:1005A000BFFF70BD70B505464FF4A0710020FFF786
:1005B000C7FFF0210020FFF7DCFF2C2001F09CFF9B
:1005C000002403E0284601F0C1FF641CB4F5963F07
:1005D000F8D370BD70B505460E461446A4F1200050
:1005E000C4B204EB4400044901EB00123146284632
:1005F00000F022F870BD0000100000102DE9F0415D
:1006000005460C460026002707E022782946384692
:10061000FFF7E0FF1037641C761C207808B101203A
:1006200000E00020142E01D2012100E0002108404A
:100630000028EAD1BDE8F0812DE9F04180460E4660
:1006400017460024002510214046FFF779FF1821A6
:100650003046FFF78EFF2C2001F04EFF00BF14E064
:1006600000250FE037F814000121A940084020B907
:100670000848008801F06AFF03E00748008801F09D
:1006800065FF6D1C102DEDDB641C182CE8D3BDE854
:10069000F0810000121500101015001010B5B048C0
:1006A000406A20F04070AE494862AE48006840F0B1
:1006B0008050AC498039C1F88000A948406A20F0D8
:1006C0004060A7494862A7488038D0F8800040F0D1
:1006D0000050A4498039C1F880000846D0F8940041
:1006E00040F00050C1F894009F48D0F8C40040F496
:1006F00080609D49C1F8C4000846D0F8A80140F4C4
:100700000010C1F8A80197488038006840F0400008
:10071000944980390860402088619148006820F43D
:100720007C208F4908600846006840F42820086053
:1007300008208E49086006200861022048600520D4
:1007400000F0E0FCCF2001F0D7FE002001F0E8FE31
:10075000832001F0E5FE302001F0E2FEED2001F003
:10076000CBFE642001F0DCFE032001F0D9FE122054
:1007700001F0D6FE812001F0D3FEE82001F0BCFE9E
:10078000852001F0CDFE012001F0CAFE792001F0A4
:10079000C7FECB2001F0B0FE392001F0C1FE2C20B5
:1007A00001F0BEFE002001F0BBFE342001F0B8FED7
:1007B000022001F0B5FEF72001F09EFE202001F09E
:1007C000AFFEEA2001F098FE002001F0A9FE002013
:1007D00001F0A6FEC02001F08FFE1D2001F0A0FE5A
:1007E000C12001F089FE112001F09AFEC52001F020
:1007F00083FE332001F094FE342001F091FEC720E7
:1008000001F07AFEBE2001F08BFEF62001F074FEAE
:10081000012001F085FE102001F082FE002001F091
:100820007FFE3A2001F068FE552001F079FE362067
:1008300001F062FEB02001F073FEB12001F05CFE19
:10084000002001F06DFE1B2001F06AFEB62001F0D1
:1008500053FE0A2001F064FEA22001F061FEF220A6
:1008600001F04AFE002001F05BFE262001F044FE6C
:10087000012001F055FEE02001F03EFE0F2001F0C6
:100880004FFE232001F04CFE1F2001F049FE0920FD
:1008900001F046FE0F2001F043FE082001F040FE6B
:1008A0004B2001F03DFEF22001F03AFE382001F02D
:1008B00037FE092001F034FE132001F031FE032041
:1008C00001F02EFE122001F02BFE072001F028FE81
:1008D000042001F025FEE12001F00EFE002001F0D1
:1008E0001FFE1D2001F01CFE202001F019FE022039
:1008F00001F016FE112001F013FE072001F010FE9A
:10090000342001F00DFE812001F00AFE462001F0A6
:1009100007FE062001F004FE0E2001F001FE0C206F
:1009200001F0FEFD322001F0FBFD382001F0F8FD62
:100930000F2001F0F5FD112001F0DEFD0C2000F08C
:10094000E1FB292001F0D8FD06488038D0F894005A
:1009500040F0805003498039C1F8940010BD000078
:1009600000C0024080C0092000C00F4000000340CA
:1009700001490880704700001215001001490880E5
:10098000704700001015001070B505460026412D77
:1009900002D1FFF783FD06E0422D02D1FFF792FD61
:1009A00001E0FFF7A3FD00F0E9F8012000F0ACF84A
:1009B0000446012C00D10326022000F0A5F80446CD
:1009C000012C00D10226032000F09EF80446012CE1
:1009D00000D10126042000F097F80446012C00D134
:1009E000002600F0F1F8012000F08EF80446012CFA
:1009F00000D10726022000F087F80446012C00D120
:100A00000626032000F080F80446012C00D10526BC
:100A1000042000F079F80446012C00D1042600F0EF
:100A2000F9F8012000F070F80446012C00D10B26E3
:100A3000022000F069F80446012C00D10A260320A8
:100A400000F062F80446012C00D10926042000F0D1
:100A50005BF80446012C00D1082600F001F90120C2
:100A600000F052F80446012C00D10F26022000F0BD
:100A70004BF80446012C00D10E26032000F044F868
:100A80000446012C00D10D26042000F03DF8044658
:100A9000012C00D10C26304670BD00000D48406985
:100AA00040F010000B4948610846006820F400003F
:100AB00008600846006820F0807008600846006EF4
:100AC00020F0007008660846006E20F0806008661E
:100AD0007047000000C009200A48006840F020006C
:100AE000084908600846006840F4806008600846CD
:100AF000006C40F4805008640846006C40F40050DC
:100B00000864704700C00920014600221A48406B63
:100B100020F40010184B5863012906D1184640698B
:100B2000C0F3C05000B100E00122022907D11248F1
:100B30004069C0F3006008B1002200E001220329EF
:100B400007D10D48406FC0F3406008B1002200E0BB
:100B50000122042907D10848406FC0F3806008B122
:100B6000002200E001220448406B40F40010024BD8
:100B70005863D0B27047000000C0092000B5FFF7ED
:100B8000ABFF1048406920F020000E49486108463C
:100B9000406940F4806048610846406D40F48050F0
:100BA00048650846406D40F4005048650846406D71
:100BB00040F4006048650846406D20F400604865D8
:100BC00000BD000000C0092000B5FFF785FF1048F8
:100BD000406940F020000E4948610846406920F411
:100BE000806048610846406D40F480504865084682
:100BF000406D40F4005048650846406D40F4006088
:100C000048650846406D20F40060486500BD00005E
:100C100000C0092000B5FFF75FFF1048406940F0B1
:100C200020000E4948610846406940F480604861F0
:100C30000846406D20F4805048650846406D40F4F9
:100C4000005048650846406D40F40060486508461D
:100C5000406D20F40060486500BD000000C0092020
:100C600000B5FFF739FF1048406940F020000E49F9
:100C700048610846406940F4806048610846406D1C
:100C800040F4805048650846406D20F400504865A7
:100C90000846406D40F4006048650846406D20F409
:100CA0000060486500BD000000C0092010B5044682
:100CB000A2786178207801F0B9F9E278617820783B
:100CC00001F0D4F922796178207801F097F910BD0C
:100CD00001F0ACFA20204B4908604B48D0F8A00145
:100CE00000F0200030B100BF4648006800F040002E
:100CF0000028F9D0032043499C390860002042496C
:100D0000C1F8A8013F490C31086001203D499439E0
:100D100008600B203C4984310860AA203A498C3194
:100D20000860552008600120374980310860AA20FA
:100D300035498C31086055203349C1F88C0000BF1B
:100D400031488830006800F080600028F8D0032027
:100D50002D4980310860AA202B49C1F88C0055200C
:100D600029498C31086000BF27488830006800F0AE
:100D70004070B0F1407FF7D123202349A4310860AF
:100D8000AA202149C1F8AC0055201F49AC310860A8
:100D900001201D49A0310860AA201B49AC31086020
:100DA00055201949C1F8AC0000BF1748A8300068A9
:100DB00000F480600028F8D003201349A0310860B7
:100DC000AA201149C1F8AC0055200F49AC31086088
:100DD00000BF0D48A830006800F44070B0F5407FB7
:100DE000F7D10A480849C431086000200649C1F813
:100DF000C8010846006820F4704040F48040086054
:100E000070470000A0C10F4000C00F40DE872804DB
:100E100000F064F82DE9F0414FF0000838E001F0EF
:100E200037F8002400BF4320FFF7AEFD0446082C2E
:100E3000F9DA002CF7DD00BF00BF24490968C808B3
:100E4000FFF7B3FA042C01DD601EC4B2204600F0A7
:100E50000FFB25466D1E284600F012FA1C4850F87C
:100E6000250018B900F006FC06460FE0184850F8B7
:100E70002500012803D100F019FB074606E01448BD
:100E800050F82500022801D100F0D0F908F101083E
:100E9000104800688045C2DBBE4203D100200E49E5
:100EA00008600EE00721701E0646094A42F820102D
:100EB000701C06460849086006480068401E05493F
:100EC000086000F031FBBDE8F08100000000001078
:100ED0002C150010080000100C0000100020FFF777
:100EE00061FB00BF0020FFF743FD1F20FFF746FD19
:100EF0001FA10020FFF782FB40F2FF70FFF73EFDCD
:100F000021A14820FFF77AFB25A17820FFF776FB87
:100F10001F20FFF733FD16A1D820FFF76FFB2649EE
:100F20000968C808FFF741FA0020FFF721FD1F20DC
:100F3000FFF724FD0EA10020FFF760FB4FF6FF70C6
:100F4000FFF71CFD10A14820FFF758FB14A17820E3
:100F5000FFF754FB1F20FFF711FD05A1D820FFF775
:100F60004DFB15490968C808FFF71FFABAE70000EA
:100F70002A2D2A2D2A2D2A2D2A2D2A2D2A2D2A2DB9
:100F80002A2D2A2D00000000202020432049205433
:100F90002049205A2045204E2053202000000000E8
:100FA00020202020202A2A20572049204E202A2A8B
:100FB00020202020000000000000001010B50020BC
:100FC000FFF7F0FA0020FFF7D3FC4FF6FF70FFF7B2
:100FD000D5FC08A10020FFF711FB0CA14820FFF76A
:100FE0000DFB10A17820FFF709FB02A1D820FFF725
:100FF00005FB10BD2A2D2A2D2A2D2A2D2A2D2A2D1A
:101000002A2D2A2D2A2D2A2D000000002020202004
:101010002020204420412059203120202020202041
:1010200000000000202020202044204520422041B4
:1010300020542045202020200000000010B586B05C
:101040000446142218A101A8FFF75AF924B91BA1DC
:1010500001A8FFF705F904E004F13000C0B28DF8F3
:101060000D000020FFF79EFA0020FFF781FC4FF6ED
:10107000FF70FFF783FC17A10020FFF7BFFA1BA149
:101080004820FFF7BBFA1F20FFF778FC01A990204A
:10109000FFF7B4FA4FF6FF70FFF770FC0DA1D820F0
:1010A000FFF7ACFA06B010BD20706C617965722054
:1010B0005B205D206973206465616420202020200E
:1010C0002020202020202020202020202020202020
:1010D000000000002A2D2A2D2A2D2A2D2A2D2A2D06
:1010E0002A2D2A2D2A2D2A2D000000002020202024
:1010F0002020204420412059203220202020202060
:1011000000000000800400BF011EA0F10100FBD11F
:101110007047000010B50020FFF744FA0020FFF7E9
:1011200027FC4FF6FF70FFF729FC10A10020FFF706
:1011300065FA1F20FFF722FC12A13020FFF75EFAAC
:101140004FF6FF70FFF71AFC14A16020FFF756FA64
:1011500018A17820FFF752FA1CA1A820FFF74EFA39
:1011600002A1D820FFF74AFA10BD00002A2D2A2D2F
:101170002A2D2A2D2A2D2A2D2A2D2A2D2A2D2A2DB7
:1011800000000000202020202044204F2043205435
:10119000204F20522020202000000000202020206E
:1011A00073656C65637420616E796F6E65202020B5
:1011B000000000002020796F752077616E74207424
:1011C0006F206865616C2020000000002020202036
:1011D000202020205B2020205D2020202020202097
:1011E0000000000010B50A480068401C084908606B
:1011F00008480068FFF722FF074909684808FFF719
:10120000D4F801F0A3F8FFF705FEFFF7EBFF10BDE0
:10121000040000100C0000100000001070B504461F
:101220000D462946204600F0CFFB70BD10B50024C6
:1012300000F0C6FD00BF4320FFF7A6FB0446082CC4
:10124000F9DA002CF7DD00BF00BF0B490968C808B8
:10125000FFF7ABF8042C01DD601EC4B2601EC4B2FF
:10126000064951F82400214600F020FD0249096892
:101270004808FFF79AF810BD000000102C15001068
:101280002DE9F041064600240027A04600BF4FF09C
:1012900000080027092000F069FF002545E02FE045
:1012A00000244320FFF770FB0446012C01D1804647
:1012B00027E0022C01D1A04623E0032C01D1A04657
:1012C0001FE0052C02D14FF004081AE0062C02D1D1
:1012D0004FF0050815E0072C02D14FF0060810E08A
:1012E000092C02D14FF007080BE00A2C02D14FF075
:1012F000080806E00B2C02D14FF0090801E000BFFE
:10130000CEE700BF0D490968C808FFF74EF8284628
:1013100000F02CFF032004E008EB88014FEA4108AD
:10132000401EA842F8DC47446D1C042DB7DB04487E
:1013300050F82600B842AAD1BDE8F08100000010A4
:101340001415001010B586B0044614220DA101A892
:10135000FEF7D6FF1CB930208DF80F0004E004F131
:101360003000C0B28DF80F000020FFF701FB4FF6F0
:10137000FF70FFF703FB01A9A820FFF73FF906B0B4
:1013800010BD000020202020202020204E6F5B2058
:101390005D2020202020202010B586B00446142295
:1013A0000DA101A8FEF7ACFF1CB930208DF80F008D
:1013B00004E004F13000C0B28DF80F000020FFF708
:1013C000D7FA4FF6FF70FFF7D9FA01A99020FFF77F
:1013D00015F906B010BD0000202020202020205943
:1013E00065735B205D2020202020202010B586B072
:1013F0000446142207A101A8FEF782FF04F1300081
:10140000C0B28DF80E0001A9A820FFF7F7F806B0CA
:1014100010BD000020202020202020205B20202044
:101420005D2020202020202010B586B00446142204
:101430000AA101A8FEF764FF04F13000C0B28DF8E4
:1014400011000020FFF794FA4FF6FF70FFF796FAAD
:1014500001A96020FFF7D2F806B010BD202020209F
:1014600020506C61796572205B205D202020202057
:1014700010B586B00446142207A101A8FEF740FF6C
:1014800004F13000C0B28DF80D0001A97820FFF7FB
:10149000B5F806B010BD000020202020202020201C
:1014A0005B205D20202020202020202010B500245B
:1014B000FFF730FE08E04320FFF766FA0446082CE9
:1014C00002DA002C00DD00E0F5E700BF09490968F9
:1014D000C808FEF76AFF042C01DD601EC4B2204676
:1014E000FFF784FF034909684808FEF75EFF2046BE
:1014F00010BD00000000001010B500F037FB0949D6
:1015000009684808FEF751FF00F02CF80549096802
:101510004808FEF74AFF002000F00AFD00F00CFF2B
:1015200010BD00000000001070B500240025002050
:101530000CE00B4951F8201009B9641C05E008497A
:1015400051F82010072900DA6D1C401C0628F0DB3A
:101550000CB9FFF75DFCAC4201D100F0CBFF70BDD0
:101560002C15001010B50020FFF71CF80020FFF725
:10157000FFF94FF6FF70FFF701FA14A10020FFF703
:101580003DF818A11820FFF739F81CA13020FFF70B
:1015900035F814A14820FFF731F81EA16020FFF7AD
:1015A0002DF810A17820FFF729F820A19020FFF74F
:1015B00025F80CA1A820FFF721F822A1C020FFF7F1
:1015C0001DF826A1D820FFF719F810BD2A2D2A2DC5
:1015D0002A2D2A2D2A2D2A2D2A2D2A2D2A2D2A2D53
:1015E000000000002D20202020202020202020206E
:1015F000202020202020202A000000002A20205B1C
:101600005D205B315D205B325D205B335D20202DF2
:10161000000000002A20205B5D205B345D205B35EC
:101620005D205B365D20202D000000002A20205B1D
:101630005D205B375D205B385D205B395D20202DB0
:10164000000000002A20205B5D205B425D205B30B3
:101650005D20205B5D20202D000000002D2A2D2A1A
:101660002D2A2D2A2D2A2D2A2D2A2D2A2D2A2D2AC2
:101670000000000010B5002400F020F800BF432057
:10168000FFF782F90446082CF9DA002CF7DD00BFD9
:1016900000BF09490968C808FEF787FE042C01DD70
:1016A000601EC4B22046FFF7A1FE0349096848083E
:1016B000FEF77BFE204610BD0000001010B5002094
:1016C000FEF770FF0020FFF753F94FF6FF70FFF7AA
:1016D00055F910A10020FEF791FF1F20FFF74EF9EA
:1016E00012A13020FEF78AFF4FF6FF70FFF746F990
:1016F00014A16020FEF782FF18A17820FEF77EFF7C
:101700001CA1A820FEF77AFF02A1D820FEF776FFE1
:1017100010BD00002A2D2A2D2A2D2A2D2A2D2A2DF2
:101720002A2D2A2D2A2D2A2D0000000020202020DD
:10173000204D2041205220462049204120202020B9
:101740000000000020202020204B696C6C20616E7E
:10175000796F6E65202020200000000020202020CE
:101760002020796F752077616E7420202020202042
:101770000000000020202020202020205B202020AE
:101780005D2020202020202000000000FFF7A2FA8A
:10179000FEF784FF0020FEF705FFFEF7BBFEFFF714
:1017A0007DF92020FEF73EFDFEF736FE01220A21DC
:1017B0000220FEF7EBFD0020FEF71CFE12200121A7
:1017C00081404209920002F1E022C2F8001100BFFC
:1017D0000025002420E01CE0FEF7ECFC062190FB35
:1017E000F1F201FB12000E4941F82400002500200F
:1017F0000AE00B4951F82010094A52F8242091427E
:1018000001D1012502E0401CA042F2DB00BF05B976
:1018100000E0E1E700BF641C062CDCDBFFF758FAB0
:101820002C1500100020FEF7BDFE00BF0020FFF7C2
:101830009FF81F20FFF7A2F81FA10020FEF7DEFE91
:1018400040F2FF70FFF79AF821A14820FEF7D6FE7C
:1018500025A17820FEF7D2FE1F20FFF78FF816A1F2
:10186000D820FEF7CBFE26490968C808FEF79DFD83
:101870000020FFF77DF81F20FFF780F80EA1002061
:10188000FEF7BCFE4FF6FF70FFF778F810A1482076
:10189000FEF7B4FE14A17820FEF7B0FE1F20FFF77C
:1018A0006DF805A1D820FEF7A9FE15490968C808FA
:1018B000FEF77BFDBAE700002A2D2A2D2A2D2A2DBE
:1018C0002A2D2A2D2A2D2A2D2A2D2A2D000000000E
:1018D00020202020204D2041205220462049204118
:1018E000202020200000000020202020202A2A2064
:1018F000572049204E202A2A2020202000000000C6
:101900000000001010B586B004460020FEF74AFE25
:10191000142216A101A8FEF7F3FC04F13100C0B2B5
:101920008DF80E000020FFF723F84FF6FF70FFF749
:1019300025F813A10020FEF761FE17A13020FEF765
:101940005DFE1F20FFF71AF801A96020FEF756FE82
:101950004FF6FF70FFF712F815A1A820FEF74EFE14
:1019600007A1D820FEF74AFE06B010BD2020202097
:101970002020202020203120202020202020202056
:101980002A2D2A2D2A2D2A2D2A2D2A2D2A2D2A2D9F
:101990002A2D2A2D00000000202020202020205069
:1019A0006C6179657220202020202020000000003A
:1019B000202020202020205F205F205F205F20202B
:1019C000202020200000000070B58AB004460D469B
:1019D0000020FEF7E7FD24B93AA105A8FEF740FC78
:1019E00011E0012C04D13DA105A8FEF739FC0AE065
:1019F000022C04D13FA105A8FEF732FC03E043A16D
:101A000005A8FEF72DFC142246A16846FEF778FCD7
:101A100005F13100C0B28DF80E0000264EE0002026
:101A2000FEF7A6FF4FF6FF70FEF7A8FF42A10020C9
:101A3000FEF7E4FD69463020FEF7E0FD44A1782082
:101A4000FEF7DCFD1F20FEF799FF05A9A820FEF791
:101A5000D5FD4FF6FF70FEF791FF37A1D820FEF7B6
:101A6000CDFD41490968C808FEF79FFC0020FEF73C
:101A70007FFF4FF6FF70FEF781FF2FA10020FEF7DA
:101A8000BDFD69463020FEF7B9FD31A17820FEF793
:101A9000B5FD0020FEF772FF05A9A820FEF7AEFDF8
:101AA0004FF6FF70FEF76AFF23A1D820FEF7A6FDD0
:101AB0002D490968C808FEF778FC761C022EAEDBBB
:101AC0000AB070BD20202020204D20412052204609
:101AD000204920412020202000000000202020203C
:101AE0002044204F20432054204F205220202020EB
:101AF00000000000202020202050204F204C2049B2
:101B000020432045202020200000000020202043EA
:101B1000204920542049205A2045204E205320207F
:101B200000000000202020202020506C6179657288
:101B300020203120202020202A2D2A2D2A2D2A2D38
:101B40002A2D2A2D2A2D2A2D2A2D2A2D000000008B
:101B5000202020202020596F75206172652061208F
:101B600020202020000000000000001010B5002000
:101B7000FEF718FD0020FEF7FBFE4FF6FF70FEF7A4
:101B8000FDFE14A10020FEF739FD18A11820FEF774
:101B900035FD1CA13020FEF731FD14A14820FEF7D1
:101BA0002DFD1EA16020FEF729FD22A17820FEF761
:101BB00025FD26A19020FEF721FD2AA1A820FEF7F1
:101BC0001DFD2EA1C020FEF719FD32A1D820FEF781
:101BD00015FD10BD2A2D2A2D2A2D2A2D2A2D2A2D1C
:101BE0002A2D2A2D2A2D2A2D000000002D2020200C
:101BF0002020202020202020202020202020202ADB
:101C0000000000002A202020506C61796572204E6F
:101C1000554D205B365D202D000000002A2020203D
:101C200020204D6166696120202020312020202D58
:101C3000000000002D2020202020436974697A656F
:101C40006E7320332020202A000000002A2020204C
:101C50002020506F6C696365202020312020202DCA
:101C6000000000002D2020202020446F63746F723C
:101C7000202020312020202A000000002A202020BF
:101C80002020202020202020202020202020202D47
:101C9000000000002D2A2D2A2D2A2D2A2D2A2D2A3A
:101CA0002D2A2D2A2D2A2D2A0000000030B58BB0B8
:101CB00005460C46142220A106A8FEF721FB14229B
:101CC00022A101A8FEF71CFB641C25B924A106A8CB
:101CD000FEF7C6FA03E028A106A8FEF7C1FA04F150
:101CE0003000C0B28DF812000020FEF75BFC00202F
:101CF000FEF73EFE4FF6FF70FEF740FE24A10020E7
:101D0000FEF77CFC1F20FEF739FE27A13020FEF7EE
:101D100075FC4FF6FF70FEF731FE01A97820FEF743
:101D20006DFC06A9A820FEF769FC19A1D820FEF7D2
:101D300065FC0BB030BD000020202020202020209A
:101D40002020202020202020202020202020202093
:101D5000202020506C6179657220202020202020D6
:101D60002020202020206973204D61666961202099
:101D70002020202000000000202020206973206EF9
:101D80006F74204D616669612020202000000000F2
:101D90002A2D2A2D2A2D2A2D2A2D2A2D2A2D2A2D8B
:101DA0002A2D2A2D00000000202020202050204F26
:101DB000204C204920432045202020200000000006
:101DC00010B50020FEF7EEFB0020FEF7D1FD4FF628
:101DD000FF70FEF7D3FD10A10020FEF70FFC1F20BF
:101DE000FEF7CCFD12A13020FEF708FC4FF6FF7085
:101DF000FEF7C4FD14A16020FEF700FC18A17820B6
:101E0000FEF7FCFB1CA1A820FEF7F8FB02A1D820DE
:101E1000FEF7F4FB10BD00002A2D2A2D2A2D2A2DB5
:101E20002A2D2A2D2A2D2A2D2A2D2A2D00000000A8
:101E3000202020202050204F204C204920432045A6
:101E400020202020000000002020202073656C65E9
:101E5000637420616E796F6E6520202000000000A1
:101E60002020796F752077616E7420746F206B6EFF
:101E70006F7720200000000020202020202020203C
:101E80005B2020205D20202020202020000000005A
:101E900010B50020FEF786FB0020FEF769FD4FF627
:101EA000FF70FEF76BFD0AA10020FEF7A7FB0EA155
:101EB0004820FEF7A3FB12A17820FEF79FFB16A196
:101EC000A820FEF79BFB02A1D820FEF797FB10BDD0
:101ED0002A2D2A2D2A2D2A2D2A2D2A2D2A2D2A2D4A
:101EE0002A2D2A2D00000000202020202020205311
:101EF000656C6563742020202020202000000000F5
:101F000020202020202020205B205D202020202059
:101F10002020202000000000202020205057203AC0
:101F2000205F205F205F205F202020200000000035
:101F30002DE9F04106460025052E01DDBDE8F081C2
:101F40003046FFF7DFFC4FF0000800273EE0002599
:101F500028E04320FEF718FD0546012D01D101249C
:101F600021E0022D01D102241DE0032D01D1032423
:101F700019E0052D01D1042415E0062D01D1052419
:101F800011E0072D01D106240DE0092D01D1072410
:101F900009E00A2D01D1082405E00B2D01D1092407
:101FA00001E000BFD5E700BF11490968C808FEF786
:101FB000FCF9384600F08CF8032003E004EB8401C0
:101FC0004C00401EB842F9DCA0447F1C042FBEDB4D
:101FD000084840F82680084951F826003146FFF7A6
:101FE0001DF9761C3046FFF7A3FF00BFA6E70000EF
:101FF00000000010141500102C15001030B50B4611
:102000000949012A07D151F8204001259D402C4360
:1020100041F8204006E051F8204001259D40AC43A6
:1020200041F8204030BD000068C00240F0B50446D1
:102030000B461546194660000B4A102901D310398A
:10204000401C52F820604FEA410C032707FA0CF7B6
:10205000BE4342F8206052F820604F0005FA07F7AF
:102060003E4342F82060F0BD00C00240F0B5044697
:102070000B461546194660000B4A102901D310394A
:10208000401C52F820604FEA410C032707FA0CF776
:10209000BE4342F8206052F820604F0005FA07F76F
:1020A0003E4342F82060F0BD40C002400146C1F30B
:1020B0000800064A906000BF0448C06800F01000A5
:1020C0000028F9D101488068C0B270470000034081
:1020D00010B5044624B90DA1A820FEF78FFA13E02D
:1020E000012C04D10FA1A820FEF788FA0CE0022CE5
:1020F00004D112A1A820FEF781FA05E0032C03D138
:1021000014A1A820FEF77AFA10BD0000202020209C
:102110002020202A205F205F205F202020202020F8
:1021200000000000202020202020202A202A205FDC
:10213000205F2020202020200000000020202020E0
:102140002020202A202A202A205F20202020202032
:1021500000000000202020202020202A202A202AE1
:10216000202A2020202020200000000010B5044656
:1021700024B910A1A820FEF741FA1AE0012C04D1DD
:1021800012A1A820FEF73AFA13E0022C04D115A1FF
:10219000A820FEF733FA0CE0032C04D117A1A820E5
:1021A000FEF72CFA05E0092C03D11AA1A820FEF7AE
:1021B00025FA10BD202020205057203A202A205FE9
:1021C000205F205F20202020000000002020202011
:1021D0005057203A202A202A205F205F20202020EC
:1021E00000000000202020205057203A202A202ADA
:1021F000202A205F20202020000000002020202016
:102200005057203A202A202A202A202A2020202025
:1022100000000000202020205057203A205F205F3F
:10222000205F205F20202020000000000020FEF71B
:10223000B9F900BF0020FEF79BFB4FF6FF70FEF7D9
:102240009DFB24A10020FEF7D9F928A14820FEF724
:10225000D5F92CA17820FEF7D1F930A1A820FEF7FE
:10226000CDF91CA1D820FEF7C9F9324909688808C0
:10227000FEF79BF80020FEF77BFB4FF6FF70FEF7A2
:102280007DFB14A10020FEF7B9F91F20FEF776FBB5
:1022900016A14820FEF7B2F94FF6FF70FEF76EFB6D
:1022A00018A17820FEF7AAF91F20FEF767FB1BA1F3
:1022B000A820FEF7A3F94FF6FF70FEF75FFB05A11C
:1022C000D820FEF79BF91B4909688808FEF76DF8CE
:1022D000B0E700002A2D2A2D2A2D2A2D2A2D2A2D5D
:1022E0002A2D2A2D2A2D2A2D000000002020202012
:1022F000204D2041205220462049204120202020EE
:102300000000000020766572736F6E20312E202051
:10231000202020202020202000000000202020203D
:10232000202020202020507265737320494E5421B4
:10233000000000000000001010B5FEF73FFE00F0A6
:1023400005F8FEF767FDFEF74DFF10BD2DE9F041E2
:1023500000F070F8002400BF4320FEF715FB044690
:10236000082CF9DA002CF7DD00BF00BF2E49096800
:10237000C808FEF71AF8042C01DD601EC4B220461E
:10238000FFF752F82546002400BF4320FEF7FCFA71
:102390000446082C01DA002C01DC0E2CF5D100BF1C
:1023A00000BF21490968C808FDF7FFFF0E2C01D1C5
:1023B000002403E0042C01DD601EC4B22046FEF7B9
:1023C000EBFF2646002400BF4320FEF7DDFA04465B
:1023D000082C01DA002C01DC0E2CF5D100BF00BF67
:1023E00011490968C808FDF7E0FF0E2C01D100244F
:1023F00003E0042C01DD601EC4B22046FEF7A2FFFC
:1024000027460024BE420ADD0721681E0546074A0A
:1024100042F8201006480068401E05490860FFF792
:1024200083F8BDE8F0810000000000102C150010BA
:102430000800001010B50020FEF7B4F80020FEF7E9
:1024400097FA4FF6FF70FEF799FA0CA10020FEF7FD
:10245000D5F810A13020FEF7D1F814A16020FEF7C6
:10246000CDF818A19020FEF7C9F81CA1A820FEF70E
:10247000C5F802A1D820FEF7C1F810BD2A2D2A2DDB
:102480002A2D2A2D2A2D2A2D2A2D2A2D2A2D2A2D94
:1024900000000000202020202020202D564F5445F1
:1024A0002D2020202020202000000000202020209F
:1024B00020506C61796572205B205D2020202020F7
:1024C00000000000202020202020205965735B2080
:1024D0005D2020202020202000000000202020203F
:1024E000202020204E6F5B205D20202020202020F7
:1024F00000000000FFF796F910B504460748406950
:1025000020F04000054948612046FFF7CFFD034811
:10251000406940F040000149486110BD00C00920F9
:1025200010B504460848406920F04000064948615B
:1025300044F48070FFF7BAFD0348406940F0400062
:102540000149486110BD000000C0092010B50446D3
:102550000B48406920F0400009494861491541EAAB
:102560002420FFF7A3FDE1B241F48070FFF79EFD48
:102570000348406940F040000149486110BD000037
:1025800000C00920A4250000000000101415000060
:1025900008010000342D0000141500107403000021
:1025A0006C010000000B3600A24A04010000000686
:1025B00000010316800102611EE13292CC02012A61
:1025C0006A23600C02200F30063006FE1FFE1F300B
:1025D00006380718030A2007180318038C01023174
:1025E00072201700E003F80F9C0E8C1C8C188C00D6
:1025F0009800F801E007800E800E100B189C18B8A8
:102600000CF00FE0038026A15A10090E181B0C11C4
:102610000C11060210110311039B018E01C038C07A
:102620006C60446044300260071844186C0C38BE7B
:102630001005E001F0037A10140618063003F001CB
:10264000F000F8009C310E33061E061C02E0063F27
:10265000FC73F021B8920C020121E7100B02000379
:102660008001C000C0006002D230022114211C157C
:102670005E12032A15163220123570120302D2069A
:1026800002111425A2214ED6208821481008D80610
:10269000F807E00130D2052AEAC405FC3FFC3FE818
:1026A000092C30120002021B806C080534E007E0A0
:1026B0000790253AF57F750C155C35104562456429
:1026C000D17AE00A03F007380E180C0C1802D4096E
:1026D000180C380EF007E003B0214C0C071901F07C
:1026E000019801880803A16043F80F5E22000221CF
:1026F0009C35F025ECD0071800FC1FFC1F9010073C
:1027000001F807180E0C0121C81805C003C00751B5
:10271000113C41920210F8904C0B0C000E000F007F
:102720000F800DC03003116B270C0CB209148513F8
:10273000F80F9031893009EC03FC071C0E001C983F
:10274000115E0005101C0C180E602009C007F00F68
:10275000381C1818325409CC03EC0F3C0E1C1C20FA
:1027600006121C2031D24582357C16C07A3AE0C868
:102770005A70DE051480215384073806F007F007ED
:102780008CE005380CF80F604130521C2430091CD5
:102790001C381EF81BE019D1130C1CC00B1BF001D8
:1027A0008A012114011F30091ACE1C0510001C805B
:1027B000720416F8DC1AF85C17800F600A1810F81B
:1027C000C3F81F080D1E1405180708003800F00193
:1027D00014121F61161F9C13013814091770796EAB
:1027E0006D2603FD2E033D7C03400C18180420C207
:1027F00029224A11440902EC0C221113E20C024076
:1028000004201818980315D4200403C00602396E5A
:102810002218022C07F83FF83F1C70AF052119D988
:10282000106C0503FC0F0C5E0310040CFC070E1A61
:1028300018A541021E180003FA0770BC0A1F383899
:102840001C300C700660DD04E008600C701C30F079
:102850001F903C08FE03FE0F060E06A105B1022DD7
:10286000B305E8050EFE0FFEA01DCC048DA20529C0
:10287000AEADB0053D3803C5A211DC4DBB032D271D
:10288000038005F81FF81F0E4DD303DDCA043C0C6E
:102890000FF83F3C780E6006E007C0810411A11DCF
:1028A000C5031533DC090EC03CF0F83FE00FBF0351
:1028B000A23002319EB1120F260C3080070D15A0F8
:1028C00005021406022531DC063807F003E0B004E7
:1028D000353A10140C060606038601C6006600761B
:1028E00000DE008E01060312360C64DD4105021B7A
:1028F00018022530CD210320050EE01EF0024336DC
:10290000D8022366CC0252C601E40586C386C320E2
:1029100010041C303C02126C0212CC0210058C31E7
:102920000C3302123602123C02E638201C05E00786
:10293000F81F9904193EA303C002F80806600E7040
:102940001C38F8401BFC0F02CA38920E190CC40741
:10295000916082E05E140907E006630E3F1C3CE0D4
:10296000CEF79106198258041F06389C1E38C008FD
:1029700076074C49B20E106030065DDE041D9B05E3
:102980001BF80330331E00401C050E301C1C1005C4
:10299000ED000308042A7FFE7F10E95EA97E071080
:1029A000181820430360BC6D14072D16072D9409D9
:1029B000140570076003631DE005E13023C3610265
:1029C00083663302236C1B02CC092C1A3C1E380E82
:1029D000380E31051C090FE00C70183030183F0418
:1029E0003C040EC0075E04140503E00670F71D8169
:1029F00007D006300E6007E0602D79044C08301CCB
:102A0000383818300C65030D1C80075C05FC7FFC12
:102A10007F6D07DD7C072D2708253EED10082FE090
:102A200003AE06011E0221282DA60A6DA6094DA897
:102A3000091D64096D0E0B7E03A009F160022100DF
:102A40000261601D82071D4407256C3F6003D704A7
:102A5000291901390112FF010D39AE0A9D4A0818E2
:102A600005F003F807AA2C070C000FF00FF8B108C7
:102A70001F0C1C5C080F16F01820041ED8A80B1E93
:102A800038370881012DE0070F17D803DA091D9A9E
:102A9000096F300E39092DA3081E309009EEC000D1
:102AA00009711F2805C01BF01F368160000719300F
:102AB0001CF01FC01B601E0F83066E18D405195230
:102AC000EC051CF00FC0F00644040FC00FDA2D9C7B
:102AD0000855E4B1020D17D40A1E0DFA093DCA09C2
:102AE00061011D600924050FE00D002A6E06AA0889
:102AF00095204F07F86A09D1010D16F00A0215C09A
:102B000002012E3041DEEC04F80078BE0C1C050CEE
:102B10000C060C6A0D100DCC006C00FC009C018CA6
:102B2000030C03120E100C560C011C020D1690091A
:102B3000E0097C3CFF7EC7E383C1020D16EA0B0669
:102B40002398200510E099101D0E0E0A17C0700979
:102B500016A00D16EA070917700D151B081EB06E9A
:102B600007FE70E20D0E1830140D1E037A0E1D1AAA
:102B70000B1DF2093D060C0D15900C1D020F0919D5
:102B8000A00F170780EA0D09106A1238C01D4C0B00
:102B90000D15DB0A4DFE053E18920F1DB7060E14EB
:102BA0000300068DF80F3008C141C141C3616301C4
:102BB000323601321C010D16F00F3E1CF70952602F
:102BC0005A1D5E061D75061E38E10B0117C01D3625
:102BD000061D38062E1828102FE00C940A2D3E06EC
:102BE0004DF00D1DA20D1D700C0D159A0C0D1B80C6
:102BF0000D8D300B8D320E2DE205BA40D63D900F73
:102C00000D259009CD22119E6024069DC60FB303A9
:102C10000048FEC0A80E5D740500075110F81F089B
:102C20000F0001600DC003300C08100420042002C6
:102C30004002210E0C05120810300C34032D3E0505
:102C40002FF81F1A102D82084102210E0F18F81FAD
:102C500064031EE04C0EA9700F1CF00FF60F21301C
:102C60002D9E056102011E30ADBC103AC0402166A8
:102C70000D10840A011430A16E0D10A80D1D24063C
:102C80003D42041DE30C0E20030411A1B2012230C9
:102C90007D6C121D581010048C018602128C0A00E3
:102CA000051EF001E001301006F801FC01FE0212E1
:102CB000FC0A011E30100B8007800F8019803180C4
:102CC000610212310A00041F0F80073010061F80B6
:102CD0003F807F02123F0A0111301805C001200217
:102CE00033B00501300608012116E1024DCE082D52
:102CF00062091D4211A00407D80D027DF60391025E
:102D000001126023041059324016431004121102BC
:102D10006C042004402E09C1604C07CC19C631C296
:102D20006142091F700680084D3A101D69046D103C
:042D30000900000096
:04000005000001E90D
:00000001FF
