:020000040000FA
:10000000A8180010E9010000F1010000F301000050
:10001000F5010000F7010000F901000000000000F8
:10002000000000000000000000000000FB010000D4
:10003000FD01000000000000FF01000001020000BF
:10004000030200003D110000030200000302000053
:10005000030200000302000003020000030200008C
:10006000030200000302000003020000030200007C
:10007000030200000302000003020000030200006C
:100080000302000003020000AD05000003020000AF
:10009000030200000302000003020000030200004C
:1000A000030200000302000003020000030200003C
:1000B000030200000302000003020000030200002C
:1000C00003020000030200000302000000F002F837
:1000D00000F060F80AA090E8000C82448344AAF182
:1000E0000107DA4501D100F055F8AFF2090EBAE880
:1000F0000F0013F0010F18BFFB1A43F0010318475C
:10010000342C0000542C000010F8013B0A4413F07A
:10011000030408BF10F8014B1D1108BF10F8015B64
:10012000641E05D010F8016B641E01F8016BF9D153
:10013000002D15D010F8014B03F00C030C2BA1EB94
:1001400004040ABF10F8013BA4EB8314A4EB0324BE
:1001500005F1010314F8016B5B1E01F8016BF9D581
:10016000914238BF10F8013BD1D3704700230024DF
:1001700000250026103A28BF78C1FBD8520728BFB7
:1001800030C148BF0B6070471FB500F060F81FBD5D
:1001900010B510BD00F08BF81146FFF7F5FF01F028
:1001A000E3FE00F056F903B4FFF7F2FF03BC00F0E2
:1001B0005DF900000B49D1F800C04A685CF8043BC7
:1001C0001068184442F8040B8C4528BFA1F1DC0CE0
:1001D0008A4228BFA1F1DC02C1F800C04A6020F0C9
:1001E000004070473C160010094880470948004706
:1001F000FEE7FEE7FEE7FEE7FEE7FEE7FEE7FEE7D7
:10020000FEE7FEE704480549034A054B7047000036
:10021000D50F0000CD000000A8160010A81800108F
:10022000A81600100B4910B5A1F17C020A4CC2E9D6
:100230003712372106E000EB104342F82130074B1C
:1002400000FB03400B1EA1F10101F4DC10BD0120F5
:10025000E8E70000DC150010E119D666CD0D0100BD
:1002600040EA0103024630B59B0710D14FF001343C
:1002700000E008C208C91D1B9D4315EAC41FF8D041
:1002800013F0FF0102F8011B0DD01B0AF8E711F86B
:10029000013B002B02F8013B05D011F8013B002B7C
:1002A00002F8013BF3D130BD704770477047754687
:1002B00000F0D8F8AE4605006946534620F0070026
:1002C000854618B020B5FFF79DFFBDE820404FF0F0
:1002D00000064FF000074FF000084FF0000B21F030
:1002E0000701AC46ACE8C009ACE8C009ACE8C009FD
:1002F000ACE8C0098D46704770470000FFFFFFFF64
:1003000053EA020C00F069802DE9F04B4FF0000633
:10031000002B1FBFB3FA83F503FA05F424FA05F6A0
:100320005E4012BF1643B2FA82F502FA05F4C5F137
:1003300020051EBF22FA05FC44EA0C04203556EACB
:10034000044C4FEA144418BF641C4FF000084FF0EF
:100350000009904271EB030C39D3002919BFB1FA9F
:1003600081F701FA07F6B0FA80F700FA07F6C7F14D
:1003700020071EBF20FA07FC46EA0C062037B6FB12
:10038000F4FCA7EB0507103F07F01F0BCBF120068D
:100390000CFA0BFB2CFA06F644BFB3460026202FBE
:1003A000A4BF5E464FF0000B5BEA060C08BF4FF09F
:1003B000010B19EB0B09ABFB027C48EB0608C01BD9
:1003C00006FB02CC0BFB03CC71EB0C01C1E70B4627
:1003D000024641464846BDE8F08B13B54FF0000099
:1003E0004FF00001AFF30080BDE81C40704710B52E
:1003F000203AC0F00B80B1E81850203AA0E818501D
:10040000B1E81850A0E81850BFF4F5AF5FEA027CDD
:1004100024BFB1E81850A0E8185044BF18C918C04C
:10042000BDE810405FEA827C24BF51F8043B40F8ED
:10043000043B08BF7047D20728BF31F8023B48BFD2
:1004400011F8012B28BF20F8023B48BF00F8012B10
:10045000704710B50446AFF300802046BDE8104059
:10046000FFF7A1BE0048704744160010014918204C
:10047000ABBEFEE7260002007CB506460C461546DC
:100480008DF80060E0B28DF801008DF802506846EA
:1004900000F08BFD7CBD0000012909D10A4A1268D9
:1004A0000A4B03401A43084BC43BC3F8C42009E07D
:1004B00041B9054A1268054B83431A40024BC43BBD
:1004C000C3F8C42070470000C4C00F40DEF7EFEF50
:1004D00070B506460D480468304600F019F8054628
:1004E00035B1012D06D0022D06D0032D08D105E02F
:1004F000042505E0012503E0022501E0082500BFF1
:1005000000BFB4FBF5F4204670BD000000000010F1
:100510000146202903D20A46064B186804E0A1F1DF
:100520002002044B1B1D186820FA02F303F003009D
:1005300070470000A8C10F4010B50A46202801D21C
:10054000034601E0A0F120031946202810D2124BE7
:100550001B6803248C40A343104CC4F8A8310E4BF5
:100560001B6802FA01F423430C4CC4F8A83111E0D3
:10057000094B1B1D1B6803248C40A343074CC4F884
:10058000AC31054B1B1D1B6802FA01F42343034CDD
:10059000C4F8AC3110BD0000A8C10F4000C00F402E
:1005A000002100E0491C8142FCD3704770B5002057
:1005B00000F032F816480078FFF734FE00250024DA
:1005C00020E01CE0FFF7F6FD062190FBF1F201FBB5
:1005D0001200104941F82400002500200AE00D49CE
:1005E00051F820100B4A52F82420914201D10125E4
:1005F00002E0401CA042F2DB00BF05B900E0E1E7E9
:1006000000BF641C062CDCDB01F064FB70BD000045
:10061000080000104815001001218140014A1160B6
:100620007047000040C10F4010B504460020054946
:1006300008606178207800F027F8A178207800F031
:100640003DF810BD40C10F4018B5044664B9002004
:100650008DF8000001208DF8010000208DF80200C7
:100660006846FFF7E1FF00BF00BF18BD0020044946
:1006700008600449C1F8480101490C31086070471D
:1006800040C10F4000C00F40012908D1094A12683B
:10069000012383401A43084BC3F8482108E039B9C5
:1006A000044A1268012383409A43034BC3F848214C
:1006B0007047000048C10F4000C00F40012908D119
:1006C000094A1268012383401A43084BC3F84C219E
:1006D00008E039B9044A1268012383409A43034B66
:1006E000C3F84C21704700004CC10F4000C00F40C0
:1006F0000848406920F400200649486108464069DE
:1007000040F4801048610846406940F40010486198
:100710007047000000C009200848406940F40020EC
:10072000064948610846406920F48010486108463F
:10073000406940F4001048617047000000C0092083
:100740000848406940F4002006494861084640696D
:1007500040F4801048610846406920F40010486168
:100760007047000000C00920084800680849084395
:10077000064908600846006A40F40010086208460E
:10078000006C40F4006008647047000000C009205D
:100790001000380010B501220A49002000F054FA78
:1007A00001225105104600F04FFA01224FF460512A
:1007B000022000F049FA01224FF0C061032000F04E
:1007C00043FA10BD300CB80170B504460D462A201E
:1007D00002F06AFAC4F3072002F07AFAE0B202F0FB
:1007E00077FA6119491EC1F3072002F071FA611905
:1007F000491EC8B202F06CFA70BD70B504460D46D1
:100800002B2002F051FAC4F3072002F061FAE0B2A3
:1008100002F05EFA6119491EC1F3072002F058FA8E
:100820006119491EC8B202F053FA70BD70B5054691
:100830004FF4A0710020FFF7C7FFF0210020FFF761
:10084000DCFF2C2002F030FA002403E0284602F0FE
:1008500055FA641CB4F5963FF8D370BD70B50546E3
:100860000E461446A4F12000C4B204EB440004492F
:1008700001EB00123146284600F022F870BD00005E
:10088000200000102DE9F04105460C460026002707
:1008900007E0227829463846FFF7E0FF1037641C4E
:1008A000761C207808B1012000E00020142E01D22F
:1008B000012100E0002108400028EAD1BDE8F081D4
:1008C0002DE9F04180460E461746002400251021F0
:1008D0004046FFF779FF18213046FFF78EFF2C20A6
:1008E00002F0E2F900BF14E000250FE037F8140031
:1008F0000121A940084020B90848008802F0FEF90B
:1009000003E00748008802F0F9F96D1C102DEDDBBB
:10091000641C182CE8D3BDE8F081000022150010FB
:100920002015001010B5B048406A20F04070AE4964
:100930004862AE48006840F08050AC498039C1F848
:100940008000A948406A20F04060A7494862A74853
:100950008038D0F8800040F00050A4498039C1F8B8
:1009600080000846D0F8940040F00050C1F8940090
:100970009F48D0F8C40040F480609D49C1F8C4008D
:100980000846D0F8A80140F40010C1F8A801974823
:100990008038006840F04000944980390860402069
:1009A00088619148006820F47C208F4908600846DF
:1009B000006840F42820086008208E49086006205E
:1009C000086102204860052000F062FFCF2002F09D
:1009D0006BF9002002F07CF9832002F079F93020D5
:1009E00002F076F9ED2002F05FF9642002F070F970
:1009F000032002F06DF9122002F06AF9812002F062
:100A000067F9E82002F050F9852002F061F9012031
:100A100002F05EF9792002F05BF9CB2002F044F994
:100A2000392002F055F92C2002F052F9002002F092
:100A30004FF9342002F04CF9022002F049F9F72076
:100A400002F032F9202002F043F9EA2002F02CF9FA
:100A5000002002F03DF9002002F03AF9C02002F037
:100A600023F91D2002F034F9C12002F01DF91120F4
:100A700002F02EF9C52002F017F9332002F028F910
:100A8000342002F025F9C72002F00EF9BE2002F052
:100A90001FF9F62002F008F9012002F019F91020E0
:100AA00002F016F9002002F013F93A2002F0FCF8E7
:100AB000552002F00DF9362002F0F6F8B02002F0D1
:100AC00007F9B12002F0F0F8002002F001F91B2034
:100AD00002F0FEF8B62002F0E7F80A2002F0F8F87B
:100AE000A22002F0F5F8F22002F0DEF8002002F079
:100AF000EFF8262002F0D8F8012002F0E9F8E02013
:100B000002F0D2F80F2002F0E3F8232002F0E0F820
:100B10001F2002F0DDF8092002F0DAF80F2002F0C1
:100B2000D7F8082002F0D4F84B2002F0D1F8F220D8
:100B300002F0CEF8382002F0CBF8092002F0C8F815
:100B4000132002F0C5F8032002F0C2F8122002F0D0
:100B5000BFF8072002F0BCF8042002F0B9F8E12049
:100B600002F0A2F8002002F0B3F81D2002F0B0F865
:100B7000202002F0ADF8022002F0AAF8112002F0C5
:100B8000A7F8072002F0A4F8342002F0A1F8812091
:100B900002F09EF8462002F09BF8062002F098F83A
:100BA0000E2002F095F80C2002F092F8322002F0AC
:100BB0008FF8382002F08CF80F2002F089F811200D
:100BC00002F072F80C2000F063FE292002F06CF8AD
:100BD00006488038D0F8940040F0805003498039AE
:100BE000C1F8940010BD000000C0024080C0092080
:100BF00000C00F400000034001490880704700001A
:100C000022150010014908807047000020150010CF
:100C100001460020052912D2DFE801F00305080B88
:100C20000E0008480CE00748203009E00548403035
:100C300006E00448603003E00248803000E000BF76
:100C400000BF704700C009202DE9F04107460D465E
:100C500016463846FFF7DCFF04463CB11EB120685B
:100C60002843206002E02068A8432060BDE8F081AE
:100C700070B505460026412D02D1FFF739FD06E08B
:100C8000422D02D1FFF748FD01E0FFF759FD00F0CA
:100C9000E9F8012000F0ACF80446012C00D103264D
:100CA000022000F0A5F80446012C00D10226032002
:100CB00000F09EF80446012C00D10126042000F02B
:100CC00097F80446012C00D1002600F0F1F801202D
:100CD00000F08EF80446012C00D10726022000F017
:100CE00087F80446012C00D10626032000F080F886
:100CF0000446012C00D10526042000F079F80446B2
:100D0000012C00D1042600F0F9F8012000F070F861
:100D10000446012C00D10B26022000F069F804469D
:100D2000012C00D10A26032000F062F80446012CB1
:100D300000D10926042000F05BF80446012C00D104
:100D4000082600F001F9012000F052F80446012CB9
:100D500000D10F26022000F04BF80446012C00D1F0
:100D60000E26032000F044F80446012C00D10D2685
:100D7000042000F03DF80446012C00D10C2630463A
:100D800070BD00000D48406940F010000B494861FB
:100D90000846006820F4000008600846006820F05B
:100DA000807008600846006E20F0007008660846F3
:100DB000006E20F0806008667047000000C00920C7
:100DC0000A48006840F020000849086008460068AA
:100DD00040F4806008600846006C40F4805008646D
:100DE0000846006C40F400500864704700C00920B9
:100DF000014600221A48406B20F40010184B58633B
:100E0000012906D118464069C0F3C05000B100E086
:100E10000122022907D112484069C0F3006008B1DD
:100E2000002200E00122032907D10D48406FC0F3E2
:100E3000406008B1002200E00122042907D10848DF
:100E4000406FC0F3806008B1002200E00122044836
:100E5000406B40F40010024B5863D0B27047000062
:100E600000C0092000B5FFF7ABFF1048406920F033
:100E700020000E4948610846406940F4806048619E
:100E80000846406D40F4805048650846406D40F487
:100E9000005048650846406D40F4006048650846CB
:100EA000406D20F40060486500BD000000C00920CE
:100EB00000B5FFF785FF1048406940F020000E495B
:100EC00048610846406920F4806048610846406DEA
:100ED00040F4805048650846406D40F40050486535
:100EE0000846406D40F4006048650846406D20F4B7
:100EF0000060486500BD000000C0092000B5FFF794
:100F00005FFF1048406940F020000E4948610846E4
:100F1000406940F4806048610846406D20F480508C
:100F200048650846406D40F4005048650846406DED
:100F300040F4006048650846406D20F40060486554
:100F400000BD000000C0092000B5FFF739FF1048C0
:100F5000406940F020000E4948610846406940F46D
:100F6000806048610846406D40F4805048650846FE
:100F7000406D20F4005048650846406D40F4006024
:100F800048650846406D20F40060486500BD0000DB
:100F900000C0092000F01F02012191404209920087
:100FA00002F1E022C2F80011704710B50446A278A1
:100FB0006178207801F012FCE2786178207801F005
:100FC0002DFC22796178207801F0F0FB10BD01F052
:100FD00005FD000020204B4908604B48D0F8A001D7
:100FE00000F0200030B100BF4648006800F040002B
:100FF0000028F9D0032043499C3908600020424969
:10100000C1F8A8013F490C31086001203D499439DD
:1010100008600B203C4984310860AA203A498C3191
:101020000860552008600120374980310860AA20F7
:1010300035498C31086055203349C1F88C0000BF18
:1010400031488830006800F080600028F8D0032024
:101050002D4980310860AA202B49C1F88C00552009
:1010600029498C31086000BF27488830006800F0AB
:101070004070B0F1407FF7D123202349A4310860AC
:10108000AA202149C1F8AC0055201F49AC310860A5
:1010900001201D49A0310860AA201B49AC3108601D
:1010A00055201949C1F8AC0000BF1748A8300068A6
:1010B00000F480600028F8D003201349A0310860B4
:1010C000AA201149C1F8AC0055200F49AC31086085
:1010D00000BF0D48A830006800F44070B0F5407FB4
:1010E000F7D10A480849C431086000200649C1F810
:1010F000C8010846006820F4704040F48040086051
:1011000070470000A0C10F4000C00F40DE872804D8
:1011100001200849087064204860002006490870D2
:1011200001204870C87000208870087164208860B1
:10113000704700000C0000102415001010B50021AD
:101140004FF0402000F036F816480078401C154952
:10115000087008460078642823D113480078401EA0
:10116000114908700846007850B91048007838B125
:101170000E480078401E0D49087009200A49087081
:101180000A48007850B90A48007838B10848007811
:10119000401E0749087009200449087000200149D1
:1011A000087010BD080000100700001006000010B5
:1011B0000500001070B505460C46B5F1402F08D06B
:1011C0001048854205D01048854202D00F4885421C
:1011D00000D103E0E3210EA000F000FA4CB1012C95
:1011E00007D0022C05D0032C03D0042C01D0052CF1
:1011F00000D103E0E42106A000F0F0F90120A040B6
:10120000286070BD00800040000009400040094097
:101210004C69625C447269766572735C736F757257
:1012200063655C6C7063313778785F74696D657283
:101230002E63000070B504460D46B4F1402F08D06F
:101240000D48844205D00D48844202D00C488442A7
:1012500000D104E04FF4D0710AA000F0BFF9012DD5
:1012600004D1606840F00100606003E0606820F035
:101270000100606070BD0000008000400000094077
:10128000004009404C69625C447269766572735C27
:10129000736F757263655C6C7063313778785F74F7
:1012A000696D65722E63000070B504460D46B4F199
:1012B000402F08D03A48844205D03A48844202D0B0
:1012C0003948844200D104E040F2D71137A000F041
:1012D00085F9287940B12879012805D02879022894
:1012E00002D02879032800D104E04FF4EC712FA03C
:1012F00000F074F9287830B1012807D0022808D00E
:1013000003280CD108E0A868A0610AE0A868E061A1
:1013100007E0A868206204E0A868606201E000BFFE
:10132000FEE700BF6069297801EB41020721914087
:1013300088436061687838B16069297801EB4102BF
:101340000121914008436061E87840B160692978E3
:1013500001EB4101491C01228A4010436061A878D9
:1013600040B16069297801EB4101891C01228A4062
:1013700010436061E06B2978042202EB41020321F3
:1013800091408843E063287900F003002978042223
:1013900002EB41018840E16B0843E06370BD00004F
:1013A0000080004000000940004009404C69625C38
:1013B000447269766572735C736F757263655C6C99
:1013C0007063313778785F74696D65722E630000E1
:1013D0002DE9F04704460D461646B4F1402F08D0DB
:1013E0003F48844205D03F48844202D03E48844270
:1013F00000D104E040F231113CA000F0EFF81DB143
:10140000012D01D000D000D104E04FF4997137A034
:1014100000F0E4F8B4F1402F08D101210220FFF7D9
:101420003BF800210220FFF787F822E02C48844295
:1014300008D101210420FFF72FF800210420FFF735
:101440007BF816E02748844208D101218805FFF780
:1014500023F800212C20FFF76FF80AE0224884428D
:1014600007D10121C805FFF717F800212E20FFF74B
:1014700063F8A06A20F00300A062A06AA0620020C6
:10148000A0602061E060606840F002006060606819
:1014900020F00200606085B93746387818B978685E
:1014A000401EE06017E0204600F00AF981467968A6
:1014B00000F024F9401EE0600DE0B046A06A20F084
:1014C0000C00A062464698F80100012803D1A06AEA
:1014D00040F00400A0624FF0FF302060BDE8F087CC
:1014E0000080004000000940004009404C69625CF7
:1014F000447269766572735C736F757263655C6C58
:101500007063313778785F74696D65722E6300009F
:1015100000F066F82DE9F0414FF0000838E001F0E6
:101520008FF8002400BF4320FFF7A2FB0446082CDD
:10153000F9DA002CF7DD00BF00BF24490968C808AC
:10154000FFF72EF8042C01DD601EC4B2204600F027
:101550005BFB25466D1E284600F05EFA1C4850F8DD
:10156000250018B900F074FC06460FE0184850F842
:101570002500012803D100F087FB074606E0144848
:1015800050F82500022801D100F018FA08F10108EE
:10159000104800688045C2DBBE4203D100200E49DE
:1015A00008600EE00721701E0646094A42F8201026
:1015B000701C06460849086006480068401E054938
:1015C000086000F09FFBBDE8F08100000000001003
:1015D00048150010180000101C00001000BFFEE7A6
:1015E0000020FFF723F900BF0020FFF705FB1F20B5
:1015F000FFF708FB1FA10020FFF744F940F2FF703E
:10160000FFF700FB21A14820FFF73CF925A1782036
:10161000FFF738F91F20FFF7F5FA16A1D820FFF7DA
:1016200031F926490968C808FEF7BAFF0020FFF71C
:10163000E3FA1F20FFF7E6FA0EA10020FFF722F9D8
:101640004FF6FF70FFF7DEFA10A14820FFF71AF9F6
:1016500014A17820FFF716F91F20FFF7D3FA05A190
:10166000D820FFF70FF915490968C808FEF798FF59
:10167000BAE700002A2D2A2D2A2D2A2D2A2D2A2DBF
:101680002A2D2A2D2A2D2A2D00000000202020435B
:10169000204920542049205A2045204E2053202004
:1016A0000000000020202020202A2A205720492046
:1016B0004E202A2A202020200000000000000010D8
:1016C00001464FF0FF30B1F1402F01D100200DE075
:1016D000074A914201D1012008E0064A914201D116
:1016E000022003E0044A914200D103207047000029
:1016F0000080004000000940004009402DE9F0470B
:1017000081460C46484600F09DFA00260546002317
:101710002946A1FB047C06FB04C205FB0321044A05
:101720003846FEF7EDFD05462846BDE8F087000087
:1017300040420F0010B50020FFF778F80020FFF7B7
:101740005BFA4FF6FF70FFF75DFA08A10020FFF784
:1017500099F80CA14820FFF795F810A17820FFF721
:1017600091F802A1D820FFF78DF810BD2A2D2A2D5F
:101770002A2D2A2D2A2D2A2D2A2D2A2D2A2D2A2DB1
:10178000000000002020202020202044204120595B
:1017900020312020202020200000000020202020B8
:1017A0002044204520422041205420452020202054
:1017B0000000000030B58BB004460D4614221EA177
:1017C00006A8FEF714FE142220A101A8FEF70FFEC2
:1017D00024B923A106A8FEF743FD04E004F130007C
:1017E000C0B28DF8210005F13000C0B28DF81100B3
:1017F0000020FFF71BF80020FFF7FEF94FF6FF70FF
:10180000FFF700FA1CA10020FFF73CF801A94820CF
:10181000FFF738F81F20FFF7F5F906A99020FFF72A
:1018200031F84FF6FF70FFF7EDF913A1D820FFF75D
:1018300029F80BB030BD000020706C617965722012
:101840005B205D2069732064656164202020202076
:10185000202020442041205920202020202020200A
:101860002020202020202020202020202020202078
:1018700020202020000000002A2D2A2D2A2D2A2D8C
:101880002A2D2A2D2A2D2A2D2A2D2A2D000000004E
:10189000800400BF011EA0F10100FBD170470000D1
:1018A00010B50020FEF7C2FF0020FFF7A5F94FF6A4
:1018B000FF70FFF7A7F910A10020FEF7E3FF1F203C
:1018C000FFF7A0F912A13020FEF7DCFF4FF6FF7002
:1018D000FFF798F914A16020FEF7D4FF18A1782033
:1018E000FEF7D0FF1CA1A820FEF7CCFF02A1D82054
:1018F000FEF7C8FF10BD00002A2D2A2D2A2D2A2D03
:101900002A2D2A2D2A2D2A2D2A2D2A2D00000000CD
:10191000202020202044204F20432054204F2052BC
:1019200020202020000000002020202073656C650E
:10193000637420616E796F6E6520202000000000C6
:101940002020796F752077616E7420746F20686530
:10195000616C20200000000020202020202020207A
:101960005B2020205D20202020202020000000007F
:1019700010B50B480068401C09490860084601681A
:1019800008480068FFF716FF074909684808FEF78E
:1019900007FE01F0B3F8FFF7BDFDFFF7E9FF10BD4B
:1019A000140000101C0000100000001070B5044668
:1019B0000D462946204600F0DFFB70BD10B500241F
:1019C00000F0D6FD00BF4320FFF752F90446082C73
:1019D000F9DA002CF7DD00BF00BF0D490968C8081F
:1019E000FEF7DEFD042C01DD601EC4B2204600F0CF
:1019F000C9F8601EC4B2074951F82400214600F01E
:101A00002DFD034909684808FEF7CAFD10BD000016
:101A100000000010481500102DE9F0410646002492
:101A20000027A04600BF4FF000080027092000F063
:101A300075FF002545E02FE000244320FFF718F94B
:101A40000446012C01D1804627E0022C01D1A0469A
:101A500023E0032C01D1A0461FE0052C02D14FF05A
:101A600004081AE0062C02D14FF0050815E0072CF7
:101A700002D14FF0060810E0092C02D14FF0070800
:101A80000BE00A2C02D14FF0080806E00B2C02D123
:101A90004FF0090801E000BFCEE700BF0D4909681B
:101AA000C808FEF77DFD284600F038FF032004E05B
:101AB00008EB88014FEA4108401EA842F8DC474481
:101AC0006D1C042DB7DB044850F82600B842AAD19B
:101AD000BDE8F081000000103015001010B586B090
:101AE000044614220DA101A8FEF781FC1CB9302088
:101AF0008DF80F0004E004F13000C0B28DF80F0043
:101B00000020FFF779F84FF6FF70FFF77BF801A987
:101B1000A820FEF7B7FE06B010BD00002020202050
:101B2000202020204E6F5B205D20202020202020C0
:101B300010B586B0044614220DA101A8FEF757FC8B
:101B40001CB930208DF80F0004E004F13000C0B261
:101B50008DF80F000020FFF74FF84FF6FF70FFF7EA
:101B600051F801A99020FEF78DFE06B010BD0000CF
:101B7000202020202020205965735B205D2020201C
:101B80002020202010B586B00446142207A101A809
:101B9000FEF72DFC04F13000C0B28DF80E0001A953
:101BA000A820FEF76FFE06B010BD00002020202008
:101BB000202020205B2020205D20202020202020AD
:101BC00010B586B0044614220AA101A8FEF70FFC46
:101BD00004F13000C0B28DF811000020FFF70CF8BE
:101BE0004FF6FF70FFF70EF801A96020FEF74AFEDE
:101BF00006B010BD2020202020506C617965722035
:101C00005B205D202020202010B586B004461422E1
:101C100007A101A8FEF7EBFB04F13000C0B28DF87C
:101C20000D0001A97820FEF72DFE06B010BD0000C2
:101C300020202020202020205B205D20202020202C
:101C40002020202070B5054635B1012D09D0022D88
:101C50000CD0032D14D10EE00220FEF739FC04460F
:101C60000EE00420FEF734FC044609E02C20FEF7C9
:101C70002FFC044604E02E20FEF72AFC044600BF99
:101C800000BF204670BD000010B50024FFF708FE1D
:101C900008E04320FEF7ECFF0446082C02DA002C93
:101CA00000DD00E0F5E700BF09490968C808FEF754
:101CB00077FC042C01DD601EC4B22046FFF762FFF2
:101CC000034909684808FEF76BFC204610BD000078
:101CD0000000001010B500F021FB09490968480810
:101CE000FEF75EFC00F02CF8054909684808FEF78D
:101CF00057FC002000F0F4FC00F0F6FE10BD0000E0
:101D00000000001070B50024002500200CE00B49F5
:101D100051F8201009B9641C05E0084951F8201059
:101D2000072900DA6D1C401C0628F0DB0CB9FFF710
:101D3000EFFBAC4201D100F0B5FF70BD48150010BB
:101D400010B50020FEF772FD0020FEF755FF4FF69C
:101D5000FF70FEF757FF14A10020FEF793FD18A1B6
:101D60001820FEF78FFD1CA13020FEF78BFD14A17B
:101D70004820FEF787FD1EA16020FEF783FD10A11D
:101D80007820FEF77FFD20A19020FEF77BFD0CA1BF
:101D9000A820FEF777FD22A1C020FEF773FD26A143
:101DA000D820FEF76FFD10BD2A2D2A2D2A2D2A2DB1
:101DB0002A2D2A2D2A2D2A2D2A2D2A2D0000000019
:101DC0002D20202020202020202020202020202006
:101DD0002020202A000000002A20205B5D205B31AB
:101DE0005D205B325D205B335D20202D0000000014
:101DF0002A20205B5D205B345D205B355D205B36F7
:101E00005D20202D000000002A20205B5D205B3734
:101E10005D205B385D205B395D20202D00000000D7
:101E20002A20205B5D205B425D205B305D20205BD3
:101E30005D20202D000000002D2A2D2A2D2A2D2A7C
:101E40002D2A2D2A2D2A2D2A2D2A2D2A0000000088
:101E500010B5002400F020F800BF4320FEF708FF73
:101E60000446082CF9DA002CF7DD00BF00BF094951
:101E70000968C808FEF794FB042C01DD601EC4B29B
:101E80002046FFF77FFE034909684808FEF788FBF4
:101E9000204610BD0000001010B50020FEF7C6FC63
:101EA0000020FEF7A9FE4FF6FF70FEF7ABFE10A173
:101EB0000020FEF7E7FC1F20FEF7A4FE12A1302051
:101EC000FEF7E0FC4FF6FF70FEF79CFE14A16020C9
:101ED000FEF7D8FC18A17820FEF7D4FC1CA1A8209E
:101EE000FEF7D0FC02A1D820FEF7CCFC10BD00000C
:101EF0002A2D2A2D2A2D2A2D2A2D2A2D2A2D2A2D2A
:101F00002A2D2A2D000000002020202020204D20F6
:101F100041204620492041202020202000000000B0
:101F200020202020204B696C6C20616E796F6E65DB
:101F30002020202000000000202020202020796F79
:101F4000752077616E742020202020200000000082
:101F500020202020202020205B2020205D20202009
:101F60002020202000000000FEF714FCFFF732F8CC
:101F7000FEF7D8FC0020FEF759FCFEF7F5FBFEF754
:101F800001FFFEF773FB01220A210220FEF774FA1B
:101F90000020FEF759FB1220FEF7FCFFFFF7B8F810
:101FA0000A4A00214FF04020FFF712FA08494FF08B
:101FB0004020FFF779F90120FEF7ECFF01214FF0F7
:101FC0004020FFF737F9FFF702F800000C0000107F
:101FD000241500100020FEF729FC00BF0020FEF7AA
:101FE0000BFE1F20FEF70EFE1FA10020FEF74AFC8D
:101FF00040F2FF70FEF706FE21A14820FEF742FCEA
:1020000025A17820FEF73EFC1F20FEF7FBFD16A160
:10201000D820FEF737FC26490968C808FEF7C0FA41
:102020000020FEF7E9FD1F20FEF7ECFD0EA10020C9
:10203000FEF728FC4FF6FF70FEF7E4FD10A14820E4
:10204000FEF720FC14A17820FEF71CFC1F20FEF7F1
:10205000D9FD05A1D820FEF715FC15490968C80867
:10206000FEF79EFABAE700002A2D2A2D2A2D2A2DE6
:102070002A2D2A2D2A2D2A2D2A2D2A2D0000000056
:102080002020202020204D20412046204920412092
:10209000202020200000000020202020202A2A20AC
:1020A000572049204E202A2A20202020000000000E
:1020B0000000001010B586B004460020FEF7B6FB05
:1020C000142216A101A8FEF792F904F13100C0B262
:1020D0008DF80E000020FEF78FFD4FF6FF70FEF723
:1020E00091FD13A10020FEF7CDFB17A13020FEF7D4
:1020F000C9FB1F20FEF786FD01A96020FEF7C2FB89
:102100004FF6FF70FEF77EFD15A1A820FEF7BAFB83
:1021100007A1D820FEF7B6FB06B010BD2020202076
:10212000202020202020312020202020202020209E
:102130002A2D2A2D2A2D2A2D2A2D2A2D2A2D2A2DE7
:102140002A2D2A2D000000002020202020202050B1
:102150006C61796572202020202020200000000082
:10216000202020202020205F205F205F205F202073
:10217000202020200000000070B58AB004460D46E3
:102180000020FEF753FB24B93AA105A8FEF768F832
:1021900011E0012C04D13DA105A8FEF761F80AE089
:1021A000022C04D13FA105A8FEF75AF803E043A191
:1021B00005A8FEF755F8142246A16846FEF717F960
:1021C00005F13100C0B28DF80E0000264EE000206F
:1021D000FEF712FD4FF6FF70FEF714FD42A100203E
:1021E000FEF750FB69463020FEF74CFB44A17820F7
:1021F000FEF748FB1F20FEF705FD05A9A820FEF706
:1022000041FB4FF6FF70FEF7FDFC37A1D820FEF72B
:1022100039FB41490968C808FEF7C2F90020FEF7FA
:10222000EBFC4FF6FF70FEF7EDFC2FA10020FEF750
:1022300029FB69463020FEF725FB31A17820FEF707
:1022400021FB0020FEF7DEFC05A9A820FEF71AFB03
:102250004FF6FF70FEF7D6FC23A1D820FEF712FB45
:102260002D490968C808FEF79BF9761C022EAEDBE3
:102270000AB070BD2020202020204D204120462083
:102280004920412020202020000000002020202084
:102290002044204F20432054204F20522020202033
:1022A00000000000202020202050204F204C2049FA
:1022B0002043204520202020000000002020204333
:1022C000204920542049205A2045204E20532020C8
:1022D00000000000202020202020506C61796572D1
:1022E00020203120202020202A2D2A2D2A2D2A2D81
:1022F0002A2D2A2D2A2D2A2D2A2D2A2D00000000D4
:10230000202020202020596F7520617265206120D7
:1023100020202020000000000000001010B5002048
:10232000FEF784FA0020FEF767FC4FF6FF70FEF719
:1023300069FC14A10020FEF7A5FA18A11820FEF7E9
:10234000A1FA1CA13020FEF79DFA14A14820FEF747
:1023500099FA1EA16020FEF795FA22A17820FEF7D7
:1023600091FA26A19020FEF78DFA2AA1A820FEF767
:1023700089FA2EA1C020FEF785FA32A1D820FEF7F7
:1023800081FA10BD2A2D2A2D2A2D2A2D2A2D2A2DFB
:102390002A2D2A2D2A2D2A2D000000002D20202054
:1023A0002020202020202020202020202020202A23
:1023B000000000002A202020506C61796572204EB8
:1023C000554D205B365D202D000000002A20202086
:1023D00020204D6166696120202020312020202DA1
:1023E000000000002D2020202020436974697A65B8
:1023F0006E7320332020202A000000002A20202095
:102400002020506F6C696365202020312020202D12
:10241000000000002D2020202020446F63746F7284
:10242000202020312020202A000000002A20202007
:102430002020202020202020202020202020202D8F
:10244000000000002D2A2D2A2D2A2D2A2D2A2D2A82
:102450002D2A2D2A2D2A2D2A0000000030B58BB000
:1024600005460C46142220A106A8FDF7C0FF142241
:1024700022A101A8FDF7BBFF641C25B924A106A871
:10248000FDF7EEFE03E028A106A8FDF7E9FE04F142
:102490003000C0B28DF812000020FEF7C7F900200E
:1024A000FEF7AAFB4FF6FF70FEF7ACFB24A100205D
:1024B000FEF7E8F91F20FEF7A5FB27A13020FEF765
:1024C000E1F94FF6FF70FEF79DFB01A97820FEF7BA
:1024D000D9F906A9A820FEF7D5F919A1D820FEF749
:1024E000D1F90BB030BD000020202020202020207A
:1024F00020202020202020202020202020202020DC
:10250000202020506C61796572202020202020201E
:102510002020202020206973204D616669612020E1
:102520002020202000000000202020206973206E41
:102530006F74204D6166696120202020000000003A
:102540002A2D2A2D2A2D2A2D2A2D2A2D2A2D2A2DD3
:102550002A2D2A2D00000000202020202050204F6E
:10256000204C20492043204520202020000000004E
:1025700010B50020FEF75AF90020FEF73DFB4FF69C
:10258000FF70FEF73FFB10A10020FEF77BF91F2034
:10259000FEF738FB12A13020FEF774F94FF6FF70FA
:1025A000FEF730FB14A16020FEF76CF918A178202B
:1025B000FEF768F91CA1A820FEF764F902A1D82053
:1025C000FEF760F910BD00002A2D2A2D2A2D2A2D94
:1025D0002A2D2A2D2A2D2A2D2A2D2A2D00000000F1
:1025E000202020202050204F204C204920432045EF
:1025F00020202020000000002020202073656C6532
:10260000637420616E796F6E6520202000000000E9
:102610002020796F752077616E7420746F206B6E47
:102620006F77202000000000202020202020202084
:102630005B2020205D2020202020202000000000A2
:1026400010B50020FEF7F2F80020FEF7D5FA4FF69D
:10265000FF70FEF7D7FA0AA10020FEF713F90EA1CA
:102660004820FEF70FF912A17820FEF70BF916A10A
:10267000A820FEF707F902A1D820FEF703F910BD44
:102680002A2D2A2D2A2D2A2D2A2D2A2D2A2D2A2D92
:102690002A2D2A2D00000000202020202020205359
:1026A000656C65637420202020202020000000003D
:1026B00020202020202020205B205D2020202020A2
:1026C0002020202000000000202020205057203A09
:1026D000205F205F205F205F20202020000000007E
:1026E0002DE9F04106460025002E01DDBDE8F08110
:1026F0003046FFF7DFFC4FF0000800273EE00025E2
:1027000028E04320FEF7B4FA0546012D01D101244B
:1027100021E0022D01D102241DE0032D01D103246B
:1027200019E0052D01D1042415E0062D01D1052461
:1027300011E0072D01D106240DE0092D01D1072458
:1027400009E00A2D01D1082405E00B2D01D109244F
:1027500001E000BFD5E700BF11490968C808FDF7CF
:102760001FFF384600F08CF8032003E004EB8401DF
:102770004C00401EB842F9DCA0447F1C042FBEDB95
:10278000084840F82680084951F826003146FFF7EE
:102790000DF9761C3046FFF7A3FF00BFA6E7000047
:1027A00000000010301500104815001030B50B4621
:1027B0000949012A07D151F8204001259D402C43A9
:1027C00041F8204006E051F8204001259D40AC43EF
:1027D00041F8204030BD000068C00240F0B504461A
:1027E0000B461546194660000B4A102901D31039D3
:1027F000401C52F820604FEA410C032707FA0CF7FF
:10280000BE4342F8206052F820604F0005FA07F7F7
:102810003E4342F82060F0BD00C00240F0B50446DF
:102820000B461546194660000B4A102901D3103992
:10283000401C52F820604FEA410C032707FA0CF7BE
:10284000BE4342F8206052F820604F0005FA07F7B7
:102850003E4342F82060F0BD40C002400146C1F353
:102860000800064A906000BF0448C06800F01000ED
:102870000028F9D101488068C0B2704700000340C9
:1028800010B5044624B90DA1A820FDF7FBFF13E005
:10289000012C04D10FA1A820FDF7F4FF0CE0022CBD
:1028A00004D112A1A820FDF7EDFF05E0032C03D110
:1028B00014A1A820FDF7E6FF10BD00002020202075
:1028C0002020202A205F205F205F20202020202041
:1028D00000000000202020202020202A202A205F25
:1028E000205F202020202020000000002020202029
:1028F0002020202A202A202A205F2020202020207B
:1029000000000000202020202020202A202A202A29
:10291000202A2020202020200000000010B504469E
:1029200024B910A1A820FDF7ADFF1AE0012C04D1B5
:1029300012A1A820FDF7A6FF13E0022C04D115A1D7
:10294000A820FDF79FFF0CE0032C04D117A1A820BD
:10295000FDF798FF05E0092C03D11AA1A820FDF787
:1029600091FF10BD202020205057203A202A205FC0
:10297000205F205F20202020000000002020202059
:102980005057203A202A202A205F205F2020202034
:1029900000000000202020205057203A202A202A22
:1029A000202A205F2020202000000000202020205E
:1029B0005057203A202A202A202A202A202020206E
:1029C00000000000202020205057203A205F205F88
:1029D000205F205F20202020000000000020FDF765
:1029E00025FF00BF0020FEF707F94FF6FF70FEF746
:1029F00009F924A10020FDF745FF28A14820FDF793
:102A000041FF2CA17820FDF73DFF30A1A820FDF764
:102A100039FF1CA1D820FDF735FF32490968880825
:102A2000FDF7BEFD0020FEF7E7F84FF6FF70FEF75A
:102A3000E9F814A10020FDF725FF1F20FEF7E2F8BA
:102A400016A14820FDF71EFF4FF6FF70FEF7DAF8DB
:102A500018A17820FDF716FF1F20FEF7D3F81BA161
:102A6000A820FDF70FFF4FF6FF70FEF7CBF805A18A
:102A7000D820FDF707FF1B4909688808FDF790FD7E
:102A8000B0E700002A2D2A2D2A2D2A2D2A2D2A2DA5
:102A90002A2D2A2D2A2D2A2D00000000202020205A
:102AA00020204D2041204620492041202020202068
:102AB0000000000020766572736F6E20312E20209A
:102AC0002020202020202020000000002020202086
:102AD000202020202020507265737320494E5421FD
:102AE000000000000000001010B5FEF723FE00F00B
:102AF00005F8FEF70FFDFEF73BFF10BD2DE9F04195
:102B000000F070F8002400BF4320FEF7B1F804463F
:102B1000082CF9DA002CF7DD00BF00BF2E49096848
:102B2000C808FDF73DFD042C01DD601EC4B220463F
:102B3000FFF746F82546002400BF4320FEF798F82B
:102B40000446082C01DA002C01DC0E2CF5D100BF64
:102B500000BF21490968C808FDF722FD0E2C01D1EC
:102B6000002403E0042C01DD601EC4B22046FEF701
:102B7000DFFF2646002400BF4320FEF779F8044615
:102B8000082C01DA002C01DC0E2CF5D100BF00BFAF
:102B900011490968C808FDF703FD0E2C01D1002476
:102BA00003E0042C01DD601EC4B22046FEF796FF50
:102BB00027460024BE420ADD0721681E0546074A53
:102BC00042F8201006480068401E05490860FFF7DB
:102BD00099F8BDE8F08100000000001048150010D1
:102BE0001800001010B50020FDF720FE0020FEF7B1
:102BF00003F84FF6FF70FEF705F80CA10020FDF773
:102C000041FE10A13020FDF73DFE14A16020FDF72C
:102C100039FE18A19020FDF735FE1CA1A820FDF774
:102C200031FE02A1D820FDF72DFE10BD2A2D2A2D40
:102C30002A2D2A2D2A2D2A2D2A2D2A2D2A2D2A2DDC
:102C400000000000202020202020202D564F544539
:102C50002D202020202020200000000020202020E7
:102C600020506C61796572205B205D20202020203F
:102C700000000000202020202020205965735B20C8
:102C80005D20202020202020000000002020202087
:102C9000202020204E6F5B205D202020202020203F
:102CA00000000000FFF796F910B504460748406998
:102CB00020F04000054948612046FFF7CFFD03485A
:102CC000406940F040000149486110BD00C0092042
:102CD00010B504460848406920F0400006494861A4
:102CE00044F48070FFF7BAFD0348406940F04000AB
:102CF0000149486110BD000000C0092010B504461C
:102D00000B48406920F0400009494861491541EAF3
:102D10002420FFF7A3FDE1B241F48070FFF79EFD90
:102D20000348406940F040000149486110BD00007F
:102D300000C00920542D00000000001024150000E0
:102D400008010000E834000024150010840300008E
:102D50006C010000D00600A24A0400011201040325
:102D6000360600010316800102611EE13292CC0298
:102D7000012A6A23600C02200F30063006FE1FFE77
:102D80001F3006380718030A2007180318038C01A0
:102D9000023172201700E003F80F9C0E8C1C8C1877
:102DA0008C009800F801E007800E800E100B189C34
:102DB00018B80CF00FE0038026A15A10090E181B5A
:102DC0000C110C11060210110311039B018E01C09E
:102DD00038C06C60446044300260071844186C0CC2
:102DE00038BE1005E001F0037A101406180630030F
:102DF000F001F000F8009C310E33061E061C02E0C4
:102E0000063FFC73F021B8920C020121E7100B027F
:102E100000038001C000C0006002D23002211421F2
:102E20001C155E12032A1516322012357012030289
:102E3000D20602111425A2214ED62088214810085E
:102E4000D806F807E00130D2052AEAC405FC3FFCA9
:102E50003FE8092C301973031B01806C080534E02E
:102E600007E00790253AF57F750C155C3510456233
:102E70004564D17AE00A03F007380E180C0C1802EA
:102E8000EC09180C380EF007E0033F03114C0C0757
:102E90001901F0019801880803A16043F80F5E2230
:102EA0000002219C35F025ECD0071800FC1FFC1F08
:102EB00090100701F807180E0C0121C81805C0036F
:102EC000C00751113C41920210F8904C0B0C000EBF
:102ED000000F000F800DC03003116B270C0CB209DE
:102EE000148513F80F9031893009EC03FC071C0E90
:102EF000001C98115E0005101C0C180E602009C003
:102F000007F00F381C1818325409CC03EC0F3C0E94
:102F10001C1C2006121C2031D24582357C16C07A3A
:102F20003AE0C85A70DE051480215384073806F051
:102F300007F0078CE005380CF80F604130521C2474
:102F400030091C1C381EF81BE019D1130C1CC00BD7
:102F50001BF0018A012114011F30091ACE1C051033
:102F6000001C80720416F8DC1AF85C17800F600AE7
:102F70001810F8C3F81F080D1E14051807080038AC
:102F800000F00114121F61161F9C13013814091759
:102F900070796E6D2603FD2E033D7C03400C1818DE
:102FA0000420C229224A11440902EC0C221113E226
:102FB0000C024004201818980315D4200403C006FE
:102FC00002396E2218022C07F83FF83F1C70AF053B
:102FD0002119D9106C0503FC0F0C5E0310040CFCC6
:102FE000070E1A18A541021E180003FA0770BC0A42
:102FF0001F38381C300C700660DD04E008600C706F
:103000001C30F01F903C08FE03FE0F060E06A105C3
:10301000B1022DB305E8050EFE0FFEA01DCC048DF8
:10302000A20529AEADB0053D3803C5A211DC4DBBEC
:10303000032D27038005F81FF81F0E4DD303DDCAAB
:10304000043C0C0FF83F3C780E6006E007C081049A
:1030500011A11DC5031533DC090EC03CF0F83FE09B
:103060000FBF03A23002319EB1120F260C30800731
:103070000D15A005021406022531DC063807F00301
:10308000E0B004353A10140C060606038601C600AB
:1030900066007600DE008E01060312360C64DD4108
:1030A00005021B18022530CD210320050EE01EF07D
:1030B000024336D8022366CC0252C601E40586C319
:1030C00086C32010041C303C02126C0212CC021089
:1030D000058C310C3302123602123C02E638201CF9
:1030E00005E007F81F9904193EA303C002F808067B
:1030F000600E701C38F8401BFC0F02CA38920E1983
:103100000CC407916082E05E140907E006630E3F7D
:103110001C3CE0CEF79106198258041F06389C1E0D
:1031200038C00876074C49B20E106030065DDE04E8
:103130001D9B051BF80330331E00401C050E301C80
:103140001C1005ED000308042A7FFE7F10E95EA92C
:103150007E0710181820430360BC6D14072D160756
:103160002D9409140570076003631DE005E1302309
:10317000C3610283663302236C1B02CC092C1A3C08
:103180001E380E380E31051C090FE00C7018303057
:10319000183F043C040EC0075E04140503E00670EB
:1031A000F71D8107D006300E6007E0602D79044CD2
:1031B00008301C383818300C65030D1C80075C057E
:1031C000FC7FFC7F6D07DD7C072D2708253EED1079
:1031D000082FE003AE06011E0221282DA60A6DA6C7
:1031E000094DA8091D64096D0E0B7E03A009F1604D
:1031F0000221000261601D82071D4407256C3F60AB
:1032000003D704291901390112FF010D39AE0A9DB6
:103210004A081805F003F807AA2C070C000FF00F56
:10322000F8B1081F0C1C5C080F16F01820041ED8FB
:10323000A80B1E38370881012DE0070F17D803DAD5
:10324000091D9A096F300E39092DA3081E30900907
:10325000EEC00009711F2805C01BF01F36816000F9
:103260000719301CF01FC01B601E0F83066E18D498
:10327000051952EC051CF00FC0F00644040FC00FF6
:10328000DA2D9C0855E4B1020D17D40A1E0DFA0977
:103290003DCA0961011D600924050FE00D002A6E79
:1032A00006AA0895204F07F86A09D1010D16F00A01
:1032B0000215C002012E3041DEEC04F80078BE0C8D
:1032C0001C050C0C060C6A0D100DCC006C00FC00EB
:1032D0009C018C030C03120E100C560C011C020DE9
:1032E000169009E0097C3CFF7EC7E383C1020D16FE
:1032F000EA0B062398200510E099101D0E0E0A1700
:10330000C0700916A00D16EA070917700D151B08E5
:103310001EB06E07FE70E20D0E1830140D1E037AFB
:103320000E1D1A0B1DF2093D060C0D15900C1D0209
:103330000F0919A00F170780EA0D09106A1238C08B
:103340001D4C0B0D15DB0A4DFE053E18920F1DB7E7
:10335000060E140300068DF80F3008C141C141C3A9
:10336000616301323601321C010D16F00F3E1CF76D
:103370000952605A1D5E061D75061E38E10B0117C5
:10338000C01D36061D38062E1828102FE00C940A92
:103390002D3E064DF00D1DA20D1D700C0D159A0C45
:1033A0000D1B800D8D300B8D320E2DE205BA40D6EF
:1033B0003D900F0D259009CD22119E6024069DC6DB
:1033C0000FB3030048FEC0A80E5D7405000751103E
:1033D000F81F080F0001600DC003300C0810042016
:1033E0000420024002210E0C05120810300C340398
:1033F0002D3E052FF81F1A102D82084102210E0FB5
:1034000018F81F64031EE04C0EA9700F1CF00FF695
:103410000F21302D9E056102011E30ADBC103AC057
:103420004021660D10840A011430A16E0D10A80D04
:103430001D24063D42041DE30C0E20030411A1B21D
:103440000122307D6C121D581010048C018602126E
:103450008C0A00051EF001E001301006F801FC01A5
:10346000FE0212FC0A011E30100B8007800F80192B
:10347000803180610212310A00041F0F8007301072
:10348000061F803F807F02123F0A0111301805C0DD
:1034900001200233B00501300608012116E1024D7A
:1034A000CE082D62091D4211A00407D80D027DF639
:1034B0000391020112602304105932401643100494
:1034C0001211026C042004402E09C1604C07CC1973
:1034D000C631C26142091F700680084D3A101D694D
:0834E000046D1009000000005A
:04000005000001E90D
:00000001FF
