:020000040000FA
:1000000088180010E9010000F1010000F301000070
:10001000F5010000F7010000F901000000000000F8
:10002000000000000000000000000000FB010000D4
:10003000FD01000000000000FF01000001020000BF
:10004000030200000302000003020000030200009C
:10005000030200000302000003020000030200008C
:10006000030200000302000003020000030200007C
:10007000030200000302000003020000030200006C
:100080000302000003020000B703000003020000A7
:10009000030200000302000003020000030200004C
:1000A000030200000302000003020000030200003C
:1000B000030200000302000003020000030200002C
:1000C00003020000030200000302000000F002F837
:1000D00000F060F80AA090E8000C82448344AAF182
:1000E0000107DA4501D100F055F8AFF2090EBAE880
:1000F0000F0013F0010F18BFFB1A43F0010318475C
:10010000642300008423000010F8013B0A4413F02C
:10011000030408BF10F8014B1D1108BF10F8015B64
:10012000641E05D010F8016B641E01F8016BF9D153
:10013000002D15D010F8014B03F00C030C2BA1EB94
:1001400004040ABF10F8013BA4EB8314A4EB0324BE
:1001500005F1010314F8016B5B1E01F8016BF9D581
:10016000914238BF10F8013BD1D3704700230024DF
:1001700000250026103A28BF78C1FBD8520728BFB7
:1001800030C148BF0B6070471FB500F060F81FBD5D
:1001900010B510BD00F08BF81146FFF7F5FF01F028
:1001A00065FA00F0DFF803B4FFF7F2FF03BC00F0DC
:1001B000E7F800000B49D1F800C04A685CF8043B3E
:1001C0001068184442F8040B8C4528BFA1F1DC0CE0
:1001D0008A4228BFA1F1DC02C1F800C04A6020F0C9
:1001E0000040704720160010094880470948004722
:1001F000FEE7FEE7FEE7FEE7FEE7FEE7FEE7FEE7D7
:10020000FEE7FEE704480549034A054B7047000036
:10021000D50C0000CD0000008816001088180010D2
:10022000881600100B4910B5A1F17C020A4CC2E9F6
:100230003712372106E000EB104342F82130074B1C
:1002400000FB03400B1EA1F10101F4DC10BD0120F5
:10025000E8E70000C0150010E119D666CD0D0100D9
:1002600040EA0103024630B59B0710D14FF001343C
:1002700000E008C208C91D1B9D4315EAC41FF8D041
:1002800013F0FF0102F8011B0DD01B0AF8E711F86B
:10029000013B002B02F8013B05D011F8013B002B7C
:1002A00002F8013BF3D130BD704770477047754687
:1002B00000F062F8AE4605006946534620F007009C
:1002C000854618B020B5FFF79DFFBDE820404FF0F0
:1002D00000064FF000074FF000084FF0000B21F030
:1002E0000701AC46ACE8C009ACE8C009ACE8C009FD
:1002F000ACE8C0098D46704770470000FFFFFFFF64
:1003000010B5203AC0F00B80B1E81850203AA0E8B0
:100310001850B1E81850A0E81850BFF4F5AF5FEAE4
:10032000027C24BFB1E81850A0E8185044BF18C997
:1003300018C0BDE810405FEA827C24BF51F8043B3E
:1003400040F8043B08BF7047D20728BF31F8023B92
:1003500048BF11F8012B28BF20F8023B48BF00F826
:10036000012B704710B50446AFF300802046BDE86E
:100370001040FFF718BF0000004870472816001013
:1003800001491820ABBEFEE7260002007CB50646F8
:100390000C4615468DF80060E0B28DF801008DF82E
:1003A0000250684600F082FC7CBD002100E0491C40
:1003B0008142FCD3704710B5002000F003F801F033
:1003C0009BF810BD01218140014A11607047000077
:1003D00040C10F4010B5044600200549086061780F
:1003E000207800F027F8A178207800F03DF810BDC3
:1003F00040C10F4018B5044664B900208DF80000D4
:1004000001208DF8010000208DF802006846FFF7FA
:10041000E1FF00BF00BF18BD002004490860044987
:10042000C1F8480101490C310860704740C10F40D4
:1004300000C00F40012908D1094A126801238340F6
:100440001A43084BC3F8482108E039B9044A126836
:10045000012383409A43034BC3F8482170470000AF
:1004600048C10F4000C00F40012908D1094A126855
:10047000012383401A43084BC3F84C2108E039B9E3
:10048000044A1268012383409A43034BC3F84C216A
:10049000704700004CC10F4000C00F400848406941
:1004A00020F40020064948610846406940F4801065
:1004B00048610846406940F40010486170470000F8
:1004C00000C009200848406940F4002006494861FE
:1004D0000846406920F4801048610846406940F4AD
:1004E000001048617047000000C0092008484069BA
:1004F00040F40020064948610846406940F48010F5
:1005000048610846406920F40010486170470000C7
:1005100000C00920084800680849084306490860E7
:100520000846006A40F4001008620846006C40F477
:10053000006008647047000000C009201000380007
:1005400070B504460D462A2001F046FFC4F307208B
:1005500001F056FFE0B201F053FF6119491EC1F3EB
:10056000072001F04DFF6119491EC8B201F048FF94
:1005700070BD70B504460D462B2001F02DFFC4F36D
:10058000072001F03DFFE0B201F03AFF6119491E7A
:10059000C1F3072001F034FF6119491EC8B201F010
:1005A0002FFF70BD70B505464FF4A0710020FFF716
:1005B000C7FFF0210020FFF7DCFF2C2001F00CFF2B
:1005C000002403E0284601F031FF641CB4F5963F97
:1005D000F8D370BD70B505460E461446A4F1200050
:1005E000C4B204EB4400044901EB00123146284632
:1005F00000F022F870BD0000100000102DE9F0415D
:1006000005460C460026002707E022782946384692
:10061000FFF7E0FF1037641C761C207808B101203A
:1006200000E00020142E01D2012100E0002108404A
:100630000028EAD1BDE8F0812DE9F04180460E4660
:1006400017460024002510214046FFF779FF1821A6
:100650003046FFF78EFF2C2001F0BEFE00BF14E0F5
:1006600000250FE037F814000121A940084020B907
:100670000848008801F0DAFE03E00748008801F02E
:10068000D5FE6D1C102DEDDB641C182CE8D3BDE8E5
:10069000F0810000121500101015001010B5B048C0
:1006A000406A20F04070AE494862AE48006840F0B1
:1006B0008050AC498039C1F88000A948406A20F0D8
:1006C0004060A7494862A7488038D0F8800040F0D1
:1006D0000050A4498039C1F880000846D0F8940041
:1006E00040F00050C1F894009F48D0F8C40040F496
:1006F00080609D49C1F8C4000846D0F8A80140F4C4
:100700000010C1F8A80197488038006840F0400008
:10071000944980390860402088619148006820F43D
:100720007C208F4908600846006840F42820086053
:1007300008208E49086006200861022048600520D4
:1007400000F0E0FCCF2001F047FE002001F058FE51
:10075000832001F055FE302001F052FEED2001F023
:100760003BFE642001F04CFE032001F049FE122004
:1007700001F046FE812001F043FEE82001F02CFE4E
:10078000852001F03DFE012001F03AFE792001F0C4
:1007900037FECB2001F020FE392001F031FE2C2065
:1007A00001F02EFE002001F02BFE342001F028FE87
:1007B000022001F025FEF72001F00EFE202001F0BE
:1007C0001FFEEA2001F008FE002001F019FE0020C3
:1007D00001F016FEC02001F0FFFD1D2001F010FE0B
:1007E000C12001F0F9FD112001F00AFEC52001F041
:1007F000F3FD332001F004FE342001F001FEC72098
:1008000001F0EAFDBE2001F0FBFDF62001F0E4FD61
:10081000012001F0F5FD102001F0F2FD002001F0B3
:10082000EFFD3A2001F0D8FD552001F0E9FD36201A
:1008300001F0D2FDB02001F0E3FDB12001F0CCFDCC
:10084000002001F0DDFD1B2001F0DAFDB62001F0F3
:10085000C3FD0A2001F0D4FDA22001F0D1FDF22059
:1008600001F0BAFD002001F0CBFD262001F0B4FD1F
:10087000012001F0C5FDE02001F0AEFD0F2001F0E8
:10088000BFFD232001F0BCFD1F2001F0B9FD0920B0
:1008900001F0B6FD0F2001F0B3FD082001F0B0FD1E
:1008A0004B2001F0ADFDF22001F0AAFD382001F04F
:1008B000A7FD092001F0A4FD132001F0A1FD0320F4
:1008C00001F09EFD122001F09BFD072001F098FD34
:1008D000042001F095FDE12001F07EFD002001F0F3
:1008E0008FFD1D2001F08CFD202001F089FD0220EC
:1008F00001F086FD112001F083FD072001F080FD4D
:10090000342001F07DFD812001F07AFD462001F0C8
:1009100077FD062001F074FD0E2001F071FD0C2022
:1009200001F06EFD322001F06BFD382001F068FD12
:100930000F2001F065FD112001F04EFD0C2000F0AC
:10094000E1FB292001F048FD06488038D0F89400EA
:1009500040F0805003498039C1F8940010BD000078
:1009600000C0024080C0092000C00F4000000340CA
:1009700001490880704700001215001001490880E5
:10098000704700001015001070B505460026412D77
:1009900002D1FFF783FD06E0422D02D1FFF792FD61
:1009A00001E0FFF7A3FD00F0E9F8012000F0ACF84A
:1009B0000446012C00D10326022000F0A5F80446CD
:1009C000012C00D10226032000F09EF80446012CE1
:1009D00000D10126042000F097F80446012C00D134
:1009E000002600F0F1F8012000F08EF80446012CFA
:1009F00000D10726022000F087F80446012C00D120
:100A00000626032000F080F80446012C00D10526BC
:100A1000042000F079F80446012C00D1042600F0EF
:100A2000F9F8012000F070F80446012C00D10B26E3
:100A3000022000F069F80446012C00D10A260320A8
:100A400000F062F80446012C00D10926042000F0D1
:100A50005BF80446012C00D1082600F001F90120C2
:100A600000F052F80446012C00D10F26022000F0BD
:100A70004BF80446012C00D10E26032000F044F868
:100A80000446012C00D10D26042000F03DF8044658
:100A9000012C00D10C26304670BD00000D48406985
:100AA00040F010000B4948610846006820F400003F
:100AB00008600846006820F0807008600846006EF4
:100AC00020F0007008660846006E20F0806008661E
:100AD0007047000000C009200A48006840F020006C
:100AE000084908600846006840F4806008600846CD
:100AF000006C40F4805008640846006C40F40050DC
:100B00000864704700C00920014600221A48406B63
:100B100020F40010184B5863012906D1184640698B
:100B2000C0F3C05000B100E00122022907D11248F1
:100B30004069C0F3006008B1002200E001220329EF
:100B400007D10D48406FC0F3406008B1002200E0BB
:100B50000122042907D10848406FC0F3806008B122
:100B6000002200E001220448406B40F40010024BD8
:100B70005863D0B27047000000C0092000B5FFF7ED
:100B8000ABFF1048406920F020000E49486108463C
:100B9000406940F4806048610846406D40F48050F0
:100BA00048650846406D40F4005048650846406D71
:100BB00040F4006048650846406D20F400604865D8
:100BC00000BD000000C0092000B5FFF785FF1048F8
:100BD000406940F020000E4948610846406920F411
:100BE000806048610846406D40F480504865084682
:100BF000406D40F4005048650846406D40F4006088
:100C000048650846406D20F40060486500BD00005E
:100C100000C0092000B5FFF75FFF1048406940F0B1
:100C200020000E4948610846406940F480604861F0
:100C30000846406D20F4805048650846406D40F4F9
:100C4000005048650846406D40F40060486508461D
:100C5000406D20F40060486500BD000000C0092020
:100C600000B5FFF739FF1048406940F020000E49F9
:100C700048610846406940F4806048610846406D1C
:100C800040F4805048650846406D20F400504865A7
:100C90000846406D40F4006048650846406D20F409
:100CA0000060486500BD000000C0092010B5044682
:100CB000A2786178207801F029F9E27861782078CB
:100CC00001F044F922796178207801F007F910BD2C
:100CD00001F01CFA20204B4908604B48D0F8A001D5
:100CE00000F0200030B100BF4648006800F040002E
:100CF0000028F9D0032043499C390860002042496C
:100D0000C1F8A8013F490C31086001203D499439E0
:100D100008600B203C4984310860AA203A498C3194
:100D20000860552008600120374980310860AA20FA
:100D300035498C31086055203349C1F88C0000BF1B
:100D400031488830006800F080600028F8D0032027
:100D50002D4980310860AA202B49C1F88C0055200C
:100D600029498C31086000BF27488830006800F0AE
:100D70004070B0F1407FF7D123202349A4310860AF
:100D8000AA202149C1F8AC0055201F49AC310860A8
:100D900001201D49A0310860AA201B49AC31086020
:100DA00055201949C1F8AC0000BF1748A8300068A9
:100DB00000F480600028F8D003201349A0310860B7
:100DC000AA201149C1F8AC0055200F49AC31086088
:100DD00000BF0D48A830006800F44070B0F5407FB7
:100DE000F7D10A480849C431086000200649C1F813
:100DF000C8010846006820F4704040F48040086054
:100E000070470000A0C10F4000C00F40DE872804DB
:100E100000F064F82DE9F0414FF0000838E000F0F0
:100E2000A7FF002400BF4320FFF7AEFD0446082CB7
:100E3000F9DA002CF7DD00BF00BF24490968C808B3
:100E4000FFF7B3FA042C01DD601EC4B2204600F0A7
:100E50000FFB25466D1E284600F012FA1C4850F87C
:100E6000250018B900F076FB06460FE0184850F848
:100E70002500012803D100F019FB074606E01448BD
:100E800050F82500022801D100F0D0F908F101083E
:100E9000104800688045C2DBBE4203D100200E49E5
:100EA00008600EE00721701E0646094A42F820102D
:100EB000701C06460849086006480068401E05493F
:100EC000086000F029FBBDE8F08100000000001080
:100ED0002C150010080000100C0000100020FFF777
:100EE00061FB00BF0020FFF743FD1F20FFF746FD19
:100EF0001FA10020FFF782FB40F2FF70FFF73EFDCD
:100F000021A14820FFF77AFB25A17820FFF776FB87
:100F10001F20FFF733FD16A1D820FFF76FFB2649EE
:100F20000968C808FFF741FA0020FFF721FD1F20DC
:100F3000FFF724FD0EA10020FFF760FB4FF6FF70C6
:100F4000FFF71CFD10A14820FFF758FB14A17820E3
:100F5000FFF754FB1F20FFF711FD05A1D820FFF775
:100F60004DFB15490968C808FFF71FFABAE70000EA
:100F70002A2D2A2D2A2D2A2D2A2D2A2D2A2D2A2DB9
:100F80002A2D2A2D00000000202020432049205433
:100F90002049205A2045204E2053202000000000E8
:100FA00020202020202A2A20572049204E202A2A8B
:100FB00020202020000000000000001010B50020BC
:100FC000FFF7F0FA0020FFF7D3FC4FF6FF70FFF7B2
:100FD000D5FC08A10020FFF711FB0CA14820FFF76A
:100FE0000DFB10A17820FFF709FB02A1D820FFF725
:100FF00005FB10BD2A2D2A2D2A2D2A2D2A2D2A2D1A
:101000002A2D2A2D2A2D2A2D000000002020202004
:101010002020204420412059203120202020202041
:1010200000000000202020202044204520422041B4
:1010300020542045202020200000000010B586B05C
:101040000446142218A101A8FFF75AF924B91BA1DC
:1010500001A8FFF705F904E004F13000C0B28DF8F3
:101060000D000020FFF79EFA0020FFF781FC4FF6ED
:10107000FF70FFF783FC17A10020FFF7BFFA1BA149
:101080004820FFF7BBFA1F20FFF778FC01A990204A
:10109000FFF7B4FA4FF6FF70FFF770FC0DA1D820F0
:1010A000FFF7ACFA06B010BD20706C617965722054
:1010B0005B205D206973206465616420202020200E
:1010C0002020202020202020202020202020202020
:1010D000000000002A2D2A2D2A2D2A2D2A2D2A2D06
:1010E0002A2D2A2D2A2D2A2D000000002020202024
:1010F0002020204420412059203220202020202060
:1011000000000000800400BF011EA0F10100FBD11F
:101110007047000010B50020FFF744FA0020FFF7E9
:1011200027FC4FF6FF70FFF729FC10A10020FFF706
:1011300065FA1F20FFF722FC12A13020FFF75EFAAC
:101140004FF6FF70FFF71AFC14A16020FFF756FA64
:1011500018A17820FFF752FA1CA1A820FFF74EFA39
:1011600002A1D820FFF74AFA10BD00002A2D2A2D2F
:101170002A2D2A2D2A2D2A2D2A2D2A2D2A2D2A2DB7
:1011800000000000202020202044204F2043205435
:10119000204F20522020202000000000202020206E
:1011A00073656C65637420616E796F6E65202020B5
:1011B000000000002020796F752077616E74207424
:1011C0006F206865616C2020000000002020202036
:1011D000202020205B2020205D2020202020202097
:1011E0000000000010B50A480068401C084908606B
:1011F00008480068FFF722FF074909684808FFF719
:10120000D4F801F013F8FFF705FEFFF7EBFF10BD70
:10121000040000100C0000100000001070B504461F
:101220000D462946204600F03FFB70BD10B5002456
:1012300000F036FD00BF4320FFF7A6FB0446082C54
:10124000F9DA002CF7DD00BF00BF0B490968C808B8
:10125000FFF7ABF8042C01DD601EC4B2601EC4B2FF
:10126000064951F82400214600F090FC0249096823
:101270004808FFF79AF810BD000000102C15001068
:101280002DE9F041064600240027A04600BF4FF09C
:1012900000080027092000F0D9FE002545E02FE0D6
:1012A00000244320FFF770FB0446012C01D1804647
:1012B00027E0022C01D1A04623E0032C01D1A04657
:1012C0001FE0052C02D14FF004081AE0062C02D1D1
:1012D0004FF0050815E0072C02D14FF0060810E08A
:1012E000092C02D14FF007080BE00A2C02D14FF075
:1012F000080806E00B2C02D14FF0090801E000BFFE
:10130000CEE700BF0D490968C808FFF74EF8284628
:1013100000F09CFE032004E008EB88014FEA41083E
:10132000401EA842F8DC47446D1C042DB7DB04487E
:1013300050F82600B842AAD1BDE8F08100000010A4
:101340001415001010B586B0044614220DA101A892
:10135000FEF7D6FF1CB930208DF80F0004E004F131
:101360003000C0B28DF80F000020FFF701FB4FF6F0
:10137000FF70FFF703FB01A9A820FFF73FF906B0B4
:1013800010BD000020202020202020204E6F5B2058
:101390005D2020202020202010B586B00446142295
:1013A0000DA101A8FEF7ACFF1CB930208DF80F008D
:1013B00004E004F13000C0B28DF80F000020FFF708
:1013C000D7FA4FF6FF70FFF7D9FA01A99020FFF77F
:1013D00015F906B010BD0000202020202020205943
:1013E00065735B205D2020202020202010B586B072
:1013F0000446142207A101A8FEF782FF04F1300081
:10140000C0B28DF80E0001A9A820FFF7F7F806B0CA
:1014100010BD000020202020202020205B20202044
:101420005D2020202020202010B586B00446142204
:101430000AA101A8FEF764FF04F13000C0B28DF8E4
:1014400011000020FFF794FA4FF6FF70FFF796FAAD
:1014500001A96020FFF7D2F806B010BD202020209F
:1014600020506C61796572205B205D202020202057
:1014700010B586B00446142207A101A8FEF740FF6C
:1014800004F13000C0B28DF80D0001A97820FFF7FB
:10149000B5F806B010BD000020202020202020201C
:1014A0005B205D20202020202020202010B500245B
:1014B000FFF730FE08E04320FFF766FA0446082CE9
:1014C00002DA002C00DD00E0F5E700BF09490968F9
:1014D000C808FEF76AFF042C01DD601EC4B2204676
:1014E000FFF784FF034909684808FEF75EFF2046BE
:1014F00010BD00000000001010B500F0A7FA05496B
:1015000009684808FEF751FF002000F081FC00F058
:1015100083FE10BD0000001070B5002400250020DF
:101520000CE00B4951F8201009B9641C05E008498A
:1015300051F82010072900DA6D1C401C0628F0DB4A
:101540000CB9FFF765FCAC4201D100F043FF70BD60
:101550002C15001010B5002400F020F800BF432027
:10156000FFF712FA0446082CF9DA002CF7DD00BF69
:1015700000BF09490968C808FEF717FF042C01DD00
:10158000601EC4B22046FFF731FF034909684808CE
:10159000FEF70BFF204610BD0000001010B5002024
:1015A000FFF700F80020FFF7E3F94FF6FF70FFF7B1
:1015B000E5F910A10020FFF721F81F20FFF7DEF961
:1015C00012A13020FFF71AF84FF6FF70FFF7D6F997
:1015D00014A16020FFF712F818A17820FFF70EF889
:1015E0001CA1A820FFF70AF802A1D820FFF706F8EF
:1015F00010BD00002A2D2A2D2A2D2A2D2A2D2A2D14
:101600002A2D2A2D2A2D2A2D0000000020202020FE
:10161000204D2041205220462049204120202020DA
:101620000000000020202020204B696C6C20616E9F
:10163000796F6E65202020200000000020202020EF
:101640002020796F752077616E7420202020202063
:101650000000000020202020202020205B202020CF
:101660005D2020202020202000000000FFF732FB1A
:10167000FFF714F80020FEF795FFFEF74BFFFFF78A
:101680000DFA2020FEF7CEFDFEF7C6FE01220A214C
:101690000220FEF77BFE0020FEF7ACFE12200121A7
:1016A00081404209920002F1E022C2F8001100BF1D
:1016B0000025002420E01CE0FEF77CFD062190FBC5
:1016C000F1F201FB12000E4941F824000025002030
:1016D0000AE00B4951F82010094A52F8242091429F
:1016E00001D1012502E0401CA042F2DB00BF05B998
:1016F00000E0E1E700BF641C062CDCDBFFF7E8FA42
:101700002C1500100020FEF74DFF00BF0020FFF752
:101710002FF91F20FFF732F91FA10020FEF76EFFFF
:1017200040F2FF70FFF72AF921A14820FEF766FF7B
:1017300025A17820FEF762FF1F20FFF71FF916A1F1
:10174000D820FEF75BFF26490968C808FEF72DFE82
:101750000020FFF70DF91F20FFF710F90EA1002060
:10176000FEF74CFF4FF6FF70FFF708F910A1482075
:10177000FEF744FF14A17820FEF740FF1F20FFF77B
:10178000FDF805A1D820FEF739FF15490968C808FA
:10179000FEF70BFEBAE700002A2D2A2D2A2D2A2D4E
:1017A0002A2D2A2D2A2D2A2D2A2D2A2D000000002F
:1017B00020202020204D2041205220462049204139
:1017C000202020200000000020202020202A2A2085
:1017D000572049204E202A2A2020202000000000E7
:1017E0000000001010B586B004460020FEF7DAFEB7
:1017F000142216A101A8FEF783FD04F13100C0B246
:101800008DF80E000020FFF7B3F84FF6FF70FFF7DA
:10181000B5F813A10020FEF7F1FE17A13020FEF766
:10182000EDFE1F20FFF7AAF801A96020FEF7E6FEF3
:101830004FF6FF70FFF7A2F815A1A820FEF7DEFE15
:1018400007A1D820FEF7DAFE06B010BD2020202028
:101850002020202020203120202020202020202077
:101860002A2D2A2D2A2D2A2D2A2D2A2D2A2D2A2DC0
:101870002A2D2A2D0000000020202020202020508A
:101880006C6179657220202020202020000000005B
:10189000202020202020205F205F205F205F20204C
:1018A000202020200000000070B58AB004460D46BC
:1018B0000020FEF777FE24B93AA105A8FEF7D0FC78
:1018C00011E0012C04D13DA105A8FEF7C9FC0AE0F6
:1018D000022C04D13FA105A8FEF7C2FC03E043A1FE
:1018E00005A8FEF7BDFC142246A16846FEF708FDD8
:1018F00005F13100C0B28DF80E0000264EE0002048
:10190000FFF736F84FF6FF70FFF738F842A10020D6
:10191000FEF774FE69463020FEF770FE44A1782081
:10192000FEF76CFE1F20FFF729F805A9A820FEF797
:1019300065FE4FF6FF70FFF721F837A1D820FEF7BC
:101940005DFE41490968C808FEF72FFD0020FFF73A
:101950000FF84FF6FF70FFF711F82FA10020FEF7E8
:101960004DFE69463020FEF749FE31A17820FEF792
:1019700045FE0020FFF702F805A9A820FEF73EFE6D
:101980004FF6FF70FEF7FAFF23A1D820FEF736FED0
:101990002D490968C808FEF708FD761C022EAEDB4B
:1019A0000AB070BD20202020204D2041205220462A
:1019B000204920412020202000000000202020205D
:1019C0002044204F20432054204F2052202020200C
:1019D00000000000202020202050204F204C2049D3
:1019E000204320452020202000000000202020430C
:1019F000204920542049205A2045204E20532020A1
:101A000000000000202020202020506C61796572A9
:101A100020203120202020202A2D2A2D2A2D2A2D59
:101A20002A2D2A2D2A2D2A2D2A2D2A2D00000000AC
:101A3000202020202020596F7520617265206120B0
:101A400020202020000000000000001010B5002021
:101A5000FEF7A8FD0020FEF78BFF4FF6FF70FEF7A4
:101A60008DFF14A10020FEF7C9FD18A11820FEF774
:101A7000C5FD1CA13020FEF7C1FD14A14820FEF7D2
:101A8000BDFD1EA16020FEF7B9FD22A17820FEF762
:101A9000B5FD26A19020FEF7B1FD2AA1A820FEF7F2
:101AA000ADFD2EA1C020FEF7A9FD32A1D820FEF782
:101AB000A5FD10BD2A2D2A2D2A2D2A2D2A2D2A2DAD
:101AC0002A2D2A2D2A2D2A2D000000002D2020202D
:101AD0002020202020202020202020202020202AFC
:101AE000000000002A202020506C61796572204E91
:101AF000554D205B365D202D000000002A2020205F
:101B000020204D6166696120202020312020202D79
:101B1000000000002D2020202020436974697A6590
:101B20006E7320332020202A000000002A2020206D
:101B30002020506F6C696365202020312020202DEB
:101B4000000000002D2020202020446F63746F725D
:101B5000202020312020202A000000002A202020E0
:101B60002020202020202020202020202020202D68
:101B7000000000002D2A2D2A2D2A2D2A2D2A2D2A5B
:101B80002D2A2D2A2D2A2D2A0000000030B58BB0D9
:101B900005460C46142220A106A8FEF7B1FB14222C
:101BA00022A101A8FEF7ACFB641C25B924A106A85C
:101BB000FEF756FB03E028A106A8FEF751FB04F14F
:101BC0003000C0B28DF812000020FEF7EBFC0020C0
:101BD000FEF7CEFE4FF6FF70FEF7D0FE24A10020E8
:101BE000FEF70CFD1F20FEF7C9FE27A13020FEF7EF
:101BF00005FD4FF6FF70FEF7C1FE01A97820FEF744
:101C0000FDFC06A9A820FEF7F9FC19A1D820FEF7D3
:101C1000F5FC0BB030BD000020202020202020202B
:101C200020202020202020202020202020202020B4
:101C3000202020506C6179657220202020202020F7
:101C40002020202020206973204D616669612020BA
:101C50002020202000000000202020206973206E1A
:101C60006F74204D61666961202020200000000013
:101C70002A2D2A2D2A2D2A2D2A2D2A2D2A2D2A2DAC
:101C80002A2D2A2D00000000202020202050204F47
:101C9000204C204920432045202020200000000027
:101CA00010B50020FEF77EFC0020FEF761FE4FF627
:101CB000FF70FEF763FE10A10020FEF79FFC1F20BF
:101CC000FEF75CFE12A13020FEF798FC4FF6FF7085
:101CD000FEF754FE14A16020FEF790FC18A17820B6
:101CE000FEF78CFC1CA1A820FEF788FC02A1D820DE
:101CF000FEF784FC10BD00002A2D2A2D2A2D2A2D46
:101D00002A2D2A2D2A2D2A2D2A2D2A2D00000000C9
:101D1000202020202050204F204C204920432045C7
:101D200020202020000000002020202073656C650A
:101D3000637420616E796F6E6520202000000000C2
:101D40002020796F752077616E7420746F206B6E20
:101D50006F7720200000000020202020202020205D
:101D60005B2020205D20202020202020000000007B
:101D700010B50020FEF716FC0020FEF7F9FD4FF627
:101D8000FF70FEF7FBFD0AA10020FEF737FC0EA155
:101D90004820FEF733FC12A17820FEF72FFC16A195
:101DA000A820FEF72BFC02A1D820FEF727FC10BDCF
:101DB0002A2D2A2D2A2D2A2D2A2D2A2D2A2D2A2D6B
:101DC0002A2D2A2D00000000202020202020205332
:101DD000656C656374202020202020200000000016
:101DE00020202020202020205B205D20202020207B
:101DF0002020202000000000202020205057203AE2
:101E0000205F205F205F205F202020200000000056
:101E10002DE9F04106460025052E01DDBDE8F081E3
:101E20003046FFF7DFFC4FF0000800273EE00025BA
:101E300028E04320FEF7A8FD0546012D01D101242D
:101E400021E0022D01D102241DE0032D01D1032444
:101E500019E0052D01D1042415E0062D01D105243A
:101E600011E0072D01D106240DE0092D01D1072431
:101E700009E00A2D01D1082405E00B2D01D1092428
:101E800001E000BFD5E700BF11490968C808FEF7A7
:101E90008CFA384600F08CF8032003E004EB840150
:101EA0004C00401EB842F9DCA0447F1C042FBEDB6E
:101EB000084840F82680084951F826003146FFF7C7
:101EC000ADF9761C3046FFF7A3FF00BFA6E7000080
:101ED00000000010141500102C15001030B50B4632
:101EE0000949012A07D151F8204001259D402C4382
:101EF00041F8204006E051F8204001259D40AC43C8
:101F000041F8204030BD000068C00240F0B50446F2
:101F10000B461546194660000B4A102901D31039AB
:101F2000401C52F820604FEA410C032707FA0CF7D7
:101F3000BE4342F8206052F820604F0005FA07F7D0
:101F40003E4342F82060F0BD00C00240F0B50446B8
:101F50000B461546194660000B4A102901D310396B
:101F6000401C52F820604FEA410C032707FA0CF797
:101F7000BE4342F8206052F820604F0005FA07F790
:101F80003E4342F82060F0BD40C002400146C1F32C
:101F90000800064A906000BF0448C06800F01000C6
:101FA0000028F9D101488068C0B2704700000340A2
:101FB00010B5044624B90DA1A820FEF71FFB13E0BD
:101FC000012C04D10FA1A820FEF718FB0CE0022C75
:101FD00004D112A1A820FEF711FB05E0032C03D1C8
:101FE00014A1A820FEF70AFB10BD0000202020202D
:101FF0002020202A205F205F205F2020202020201A
:1020000000000000202020202020202A202A205FFD
:10201000205F202020202020000000002020202001
:102020002020202A202A202A205F20202020202053
:1020300000000000202020202020202A202A202A02
:10204000202A2020202020200000000010B5044677
:1020500024B910A1A820FEF7D1FA1AE0012C04D16E
:1020600012A1A820FEF7CAFA13E0022C04D115A190
:10207000A820FEF7C3FA0CE0032C04D117A1A82076
:10208000FEF7BCFA05E0092C03D11AA1A820FEF73F
:10209000B5FA10BD202020205057203A202A205F7A
:1020A000205F205F20202020000000002020202032
:1020B0005057203A202A202A205F205F202020200D
:1020C00000000000202020205057203A202A202AFB
:1020D000202A205F20202020000000002020202037
:1020E0005057203A202A202A202A202A2020202047
:1020F00000000000202020205057203A205F205F61
:10210000205F205F20202020000000000020FEF73C
:1021100049FA00BF0020FEF72BFC4FF6FF70FEF7D8
:102120002DFC24A10020FEF769FA28A14820FEF723
:1021300065FA2CA17820FEF761FA30A1A820FEF7FD
:102140005DFA1CA1D820FEF759FA324909688808BF
:10215000FEF72BF90020FEF70BFC4FF6FF70FEF7A1
:102160000DFC14A10020FEF749FA1F20FEF706FC23
:1021700016A14820FEF742FA4FF6FF70FEF7FEFB6D
:1021800018A17820FEF73AFA1F20FEF7F7FB1BA1F3
:10219000A820FEF733FA4FF6FF70FEF7EFFB05A11C
:1021A000D820FEF72BFA1B4909688808FEF7FDF8CE
:1021B000B0E700002A2D2A2D2A2D2A2D2A2D2A2D7E
:1021C0002A2D2A2D2A2D2A2D000000002020202033
:1021D000204D20412052204620492041202020200F
:1021E0000000000020766572736F6E20312E202073
:1021F000202020202020202000000000202020205F
:10220000202020202020507265737320494E5421D5
:10221000000000000000001010B5FEF7CFFE00F037
:1022200005F8FEF7F7FDFEF7DDFF10BD2DE9F041E3
:1022300000F070F8002400BF4320FEF7A5FB044621
:10224000082CF9DA002CF7DD00BF00BF2E49096821
:10225000C808FEF7AAF8042C01DD601EC4B22046AF
:10226000FFF7E2F82546002400BF4320FEF78CFB71
:102270000446082C01DA002C01DC0E2CF5D100BF3D
:1022800000BF21490968C808FEF78FF80E2C01D15C
:10229000002403E0042C01DD601EC4B22046FFF7D9
:1022A0007BF82646002400BF4320FEF76DFB044662
:1022B000082C01DA002C01DC0E2CF5D100BF00BF88
:1022C00011490968C808FEF770F80E2C01D10024E6
:1022D00003E0042C01DD601EC4B22046FFF732F893
:1022E00027460024BE420ADD0721681E0546074A2C
:1022F00042F8201006480068401E05490860FFF7B4
:102300000BF9BDE8F0810000000000102C15001052
:102310000800001010B50020FEF744F90020FEF779
:1023200027FB4FF6FF70FEF729FB0CA10020FEF7FC
:1023300065F910A13020FEF761F914A16020FEF7C5
:102340005DF918A19020FEF759F91CA1A820FEF70D
:1023500055F902A1D820FEF751F910BD2A2D2A2DDA
:102360002A2D2A2D2A2D2A2D2A2D2A2D2A2D2A2DB5
:1023700000000000202020202020202D564F544512
:102380002D202020202020200000000020202020C0
:1023900020506C61796572205B205D202020202018
:1023A00000000000202020202020205965735B20A1
:1023B0005D20202020202020000000002020202060
:1023C000202020204E6F5B205D2020202020202018
:1023D00000000000FFF796F910B504460748406971
:1023E00020F04000054948612046FFF7CFFD034833
:1023F000406940F040000149486110BD00C009201B
:1024000010B504460848406920F04000064948617C
:1024100044F48070FFF7BAFD0348406940F0400083
:102420000149486110BD000000C0092010B50446F4
:102430000B48406920F0400009494861491541EACC
:102440002420FFF7A3FDE1B241F48070FFF79EFD69
:102450000348406940F040000149486110BD000058
:1024600000C00920842400000000001014150000A2
:1024700008010000142C0000141500107403000063
:102480006C010000000B3600A24A040100000006A7
:1024900000010316800102611EE13292CC02012A82
:1024A0006A23600C02200F30063006FE1FFE1F302C
:1024B00006380718030A2007180318038C01023195
:1024C00072201700E003F80F9C0E8C1C8C188C00F7
:1024D0009800F801E007800E800E100B189C18B8C9
:1024E0000CF00FE0038026A15A10090E181B0C11E6
:1024F0000C11060210110311039B018E01C038C09C
:102500006C60446044300260071844186C0C38BE9C
:102510001005E001F0037A10140618063003F001EC
:10252000F000F8009C310E33061E061C02E0063F48
:10253000FC73F021B8920C020121E7100B0200039A
:102540008001C000C0006002D230022114211C159D
:102550005E12032A15163220123570120302D206BB
:1025600002111425A2214ED6208821481008D80631
:10257000F807E00130D2052AEAC405FC3FFC3FE839
:10258000092C30120002021B806C080534E007E0C1
:102590000790253AF57F750C155C3510456245644A
:1025A000D17AE00A03F007380E180C0C1802D4098F
:1025B000180C380EF007E003B0214C0C071901F09D
:1025C000019801880803A16043F80F5E22000221F0
:1025D0009C35F025ECD0071800FC1FFC1F9010075D
:1025E00001F807180E0C0121C81805C003C00751D7
:1025F000113C41920210F8904C0B0C000E000F00A1
:102600000F800DC03003116B270C0CB20914851319
:10261000F80F9031893009EC03FC071C0E001C9860
:10262000115E0005101C0C180E602009C007F00F89
:10263000381C1818325409CC03EC0F3C0E1C1C201B
:1026400006121C2031D24582357C16C07A3AE0C889
:102650005A70DE051480215384073806F007F0070E
:102660008CE005380CF80F604130521C2430091CF6
:102670001C381EF81BE019D1130C1CC00B1BF001F9
:102680008A012114011F30091ACE1C0510001C807C
:10269000720416F8DC1AF85C17800F600A1810F83C
:1026A000C3F81F080D1E1405180708003800F001B4
:1026B00014121F61161F9C13013814091770796ECC
:1026C0006D2603FD2E033D7C03400C18180420C228
:1026D00029224A11440902EC0C221113E20C024097
:1026E00004201818980315D4200403C00602396E7C
:1026F0002218022C07F83FF83F1C70AF052119D9AA
:10270000106C0503FC0F0C5E0310040CFC070E1A82
:1027100018A541021E180003FA0770BC0A1F3838BA
:102720001C300C700660DD04E008600C701C30F09A
:102730001F903C08FE03FE0F060E06A105B1022DF8
:10274000B305E8050EFE0FFEA01DCC048DA20529E1
:10275000AEADB0053D3803C5A211DC4DBB032D273E
:10276000038005F81FF81F0E4DD303DDCA043C0C8F
:102770000FF83F3C780E6006E007C0810411A11DF0
:10278000C5031533DC090EC03CF0F83FE00FBF0372
:10279000A23002319EB1120F260C3080070D15A019
:1027A00005021406022531DC063807F003E0B00408
:1027B000353A10140C060606038601C6006600763C
:1027C00000DE008E01060312360C64DD4105021B9B
:1027D00018022530CD210320050EE01EF0024336FD
:1027E000D8022366CC0252C601E40586C386C32004
:1027F00010041C303C02126C0212CC0210058C3109
:102800000C3302123602123C02E638201C05E007A7
:10281000F81F9904193EA303C002F80806600E7061
:102820001C38F8401BFC0F02CA38920E190CC40762
:10283000916082E05E140907E006630E3F1C3CE0F5
:10284000CEF79106198258041F06389C1E38C0081E
:1028500076074C49B20E106030065DDE041D9B0504
:102860001BF80330331E00401C050E301C1C1005E5
:10287000ED000308042A7FFE7F10E95EA97E0710A1
:10288000181820430360BC6D14072D16072D9409FA
:10289000140570076003631DE005E13023C3610286
:1028A00083663302236C1B02CC092C1A3C1E380EA3
:1028B000380E31051C090FE00C70183030183F0439
:1028C0003C040EC0075E04140503E00670F71D818A
:1028D00007D006300E6007E0602D79044C08301CEC
:1028E000383818300C65030D1C80075C05FC7FFC34
:1028F0007F6D07DD7C072D2708253EED10082FE0B2
:1029000003AE06011E0221282DA60A6DA6094DA8B8
:10291000091D64096D0E0B7E03A009F16002210000
:102920000261601D82071D4407256C3F6003D704C8
:10293000291901390112FF010D39AE0A9D4A081803
:1029400005F003F807AA2C070C000FF00FF8B108E8
:102950001F0C1C5C080F16F01820041ED8A80B1EB4
:1029600038370881012DE0070F17D803DA091D9ABF
:10297000096F300E39092DA3081E309009EEC000F2
:1029800009711F2805C01BF01F3681600007193030
:102990001CF01FC01B601E0F83066E18D405195251
:1029A000EC051CF00FC0F00644040FC00FDA2D9C9C
:1029B0000855E4B1020D17D40A1E0DFA093DCA09E3
:1029C00061011D600924050FE00D002A6E06AA08AA
:1029D00095204F07F86A09D1010D16F00A0215C0BB
:1029E00002012E3041DEEC04F80078BE0C1C050C10
:1029F0000C060C6A0D100DCC006C00FC009C018CC8
:102A0000030C03120E100C560C011C020D1690093B
:102A1000E0097C3CFF7EC7E383C1020D16EA0B068A
:102A20002398200510E099101D0E0E0A17C070099A
:102A300016A00D16EA070917700D151B081EB06EBB
:102A400007FE70E20D0E1830140D1E037A0E1D1ACB
:102A50000B1DF2093D060C0D15900C1D020F0919F6
:102A6000A00F170780EA0D09106A1238C01D4C0B21
:102A70000D15DB0A4DFE053E18920F1DB7060E140C
:102A80000300068DF80F3008C141C141C3616301E5
:102A9000323601321C010D16F00F3E1CF709526050
:102AA0005A1D5E061D75061E38E10B0117C01D3646
:102AB000061D38062E1828102FE00C940A2D3E060D
:102AC0004DF00D1DA20D1D700C0D159A0C0D1B80E7
:102AD0000D8D300B8D320E2DE205BA40D63D900F94
:102AE0000D259009CD22119E6024069DC60FB303CB
:102AF0000048FEC0A80E5D740500075110F81F08BD
:102B00000F0001600DC003300C08100420042002E7
:102B10004002210E0C05120810300C34032D3E0526
:102B20002FF81F1A102D82084102210E0F18F81FCE
:102B300064031EE04C0EA9700F1CF00FF60F21303D
:102B40002D9E056102011E30ADBC103AC0402166C9
:102B50000D10840A011430A16E0D10A80D1D24065D
:102B60003D42041DE30C0E20030411A1B2012230EA
:102B70007D6C121D581010048C018602128C0A0004
:102B8000051EF001E001301006F801FC01FE021202
:102B9000FC0A011E30100B8007800F8019803180E5
:102BA000610212310A00041F0F80073010061F80D7
:102BB0003F807F02123F0A0111301805C001200238
:102BC00033B00501300608012116E1024DCE082D73
:102BD00062091D4211A00407D80D027DF60391027F
:102BE00001126023041059324016431004121102DE
:102BF0006C042004402E09C1604C07CC19C631C2B8
:102C00006142091F700680084D3A101D69046D105D
:042C100009000000B7
:04000005000001E90D
:00000001FF
